:020000040800F2
:1000000000040020470100089D0100089F0100082E
:10001000A3010008A7010008AB01000800000000D0
:10002000000000000000000000000000AF01000818
:10003000B101000800000000CB2E0008B501000847
:1000400067010008670100086701000867010008F0
:1000500067010008670100086701000867010008E0
:1000600067010008670100086701000867010008D0
:100070006701000867010008C50100086701000862
:1000800067010008670100086701000867010008B0
:1000900067010008670100086701000867010008A0
:1000A0006701000867010008670100086701000890
:1000B0006701000867010008670100086701000880
:1000C0006701000867010008670100086701000870
:1000D00067010008EF0100086701000867010008D8
:1000E0006701000867010008670100086701000850
:1000F0006701000867010008670100086701000840
:10010000670100086701000867010008670100082F
:10011000670100086701000867010008670100081F
:10012000670100086701000867010008670100080F
:10013000DFF80CD004F05CFF0048004775010008B0
:10014000B0130020704708488047084981F30888A9
:1001500007480047FEE7FEE7FEE7FEE7FEE7FEE7AB
:10016000FEE7FEE7FEE7FEE745010008B0130020CA
:100170003101000810B502F0FEFE01F086FB0523F8
:10018000044A0021044802F042F901F09BFC0020DF
:1001900010BD00008801002093300008704700BFA8
:1001A000FEE700BFFEE700BFFEE700BFFEE77047C7
:1001B0007047704710B501F07CFB01F0BAFC01F00C
:1001C00093FB10BD10B501F074FB4FF4005000F02C
:1001D000D7FD012808D100228021054800F012FF38
:1001E0004FF4005000F0E0FD01F07EFB10BD7047C1
:1001F000003801400CB50020019000906C48006868
:1002000040F480306A49086000BF6948006800F423
:10021000003000900198401C0190009818B9019896
:10022000B0F5A06FF1D16248006800F4003010B161
:100230000120009001E0002000900098012843D1A7
:100240005C48006840F010005A49086008460068A1
:1002500020F0030008600846006840F002000860D3
:10026000534840685249486008464068486008461C
:10027000406840F4806048600846406820F47C1084
:1002800048600846406840F4E81048600846006846
:1002900040F08070086000BF4548006800F00070C2
:1002A0000028F9D04248406820F0030040494860E7
:1002B0000846406840F00200486000BF3C48406883
:1002C00000F00C000828F9D10CBD10B5FFF792FF23
:1002D00010BD10B53648006840F001003449086090
:1002E000084640683449084031494860084600687B
:1002F000324908402E4908600846006820F48020F2
:1003000008600846406820F4FE0048604FF41F0073
:100310008860FFF7DAFF4FF000602949086010BDE0
:1003200010B5002100200022214B5B6803F00C0176
:1003300021B1042906D0082928D107E0214B224CFD
:10034000236027E01F4B204C236023E0184B5B68A1
:1003500003F47010164B5B6803F48032022303EB46
:10036000904022B9194B4343174C23600DE0104BCA
:100370005B6803F4003323B1144B4343124C2360F6
:1003800003E0104B4343104C236003E00D4B0E4C35
:10039000236000BF00BF064B5B68C3F303130C4C24
:1003A000E15C094B1B68CB40074C236010BD00008B
:1003B00000100240002002400000FFF8FFFFF6FEA0
:1003C00008ED00E000127A000000002000093D0066
:1003D0000400002031490143314A1160704770B573
:1003E000002100230F22C47804B32D4C246804F4A8
:1003F000E064C4F5E064210AC1F10403CA40447812
:1004000004FA03F18478144021430901254C06784D
:10041000A155047804F01F050124AC4005786D1146
:10042000AD0005F1E025C5F8004109E0047804F0CD
:100430001F050124AC401C4D0678761145F8264076
:1004400070BD1A4A0A400243154B1B1F1A607047C1
:1004500039B1134A121D12680243114B1B1D1A6059
:1004600006E00F4A121D126882430D4B1B1D1A60D5
:100470007047042808D14FF0E021096941F00401D8
:100480004FF0E022116107E04FF0E021096921F00F
:1004900004014FF0E0221161704700000000FA05EE
:1004A0000CED00E000E400E080E100E080FFFF1FD1
:1004B00010B50446CC48844208D10121042000F044
:1004C0002DFB0021042000F029FB46E0C7488442B0
:1004D00008D10121082000F021FB0021082000F0B4
:1004E0001DFB3AE0C248844208D10121102000F0EF
:1004F00015FB0021102000F011FB2EE0BD488442C6
:1005000008D10121202000F009FB0021202000F06B
:1005100005FB22E0B848844208D10121402000F0C8
:10052000FDFA0021402000F0F9FA16E0B3488442B9
:1005300008D10121802000F0F1FA0021802000F094
:10054000EDFA0AE0AE48844207D10121801500F09F
:10055000E5FA0021A01500F0E1FA10BD10B5012167
:10056000084600F0DBFA0021012000F0D7FA10BDA8
:100570002DE9F0410246002500260020002300243A
:10058000002791F803C00CF00F0591F803C00CF0A0
:10059000100CBCF1000F03D091F802C04CEA050525
:1005A00091F800C0BCF1000F31D0146800202BE09E
:1005B0004FF0010C0CFA00F3B1F800C00CEA03068E
:1005C0009E4220D183004FF00F0C0CFA03F7BC437E
:1005D00005FA03FC4CEA040491F803C0BCF1280FAF
:1005E00006D14FF0010C0CFA00FCC2F814C00AE06E
:1005F00091F803C0BCF1480F05D14FF0010C0CFA83
:1006000000FCC2F810C0401C0828D1D31460B1F817
:1006100000C0BCF1FF0F34DD546800202EE000F173
:10062000080C4FF0010808FA0CF3B1F800C00CEA0E
:1006300003069E4221D183004FF00F0C0CFA03F702
:10064000BC4305FA03FC4CEA040491F803C0BCF176
:10065000280F05D100F1080C08FA0CF8C2F8148034
:1006600091F803C0BCF1480F07D100F1080C4FF01E
:10067000010808FA0CF8C2F81080401C0828CED3F4
:100680005460BDE8F0814FF6FF7101800221817056
:100690000421C17070470246002093680B400BB1E3
:1006A000012000E0002070470146886880B2704752
:1006B00002460020D3680B400BB1012000E000206F
:1006C00070470146C86880B2704701617047416158
:1006D00070470AB1016100E041617047C160704735
:1006E0004FF480320A43826181618261826982694A
:1006F000704702460020434B18684FF6807318403D
:1007000040EA021008433F4B186070473E49C861F9
:100710007047F0B50A46002300240021002500F0B0
:100720000046B6F1004F02D1364EF16901E0354E78
:100730007168C0F3034583B200F44016B6F5401F5C
:1007400008D121F070612F4E766826F070662D4F2B
:100750007E6012E000F48016B6F5801F06D10326F5
:1007600006FA05F4A14341F0706106E0460D36013A
:1007700003FA06F6B14341F0706122B1460D36012D
:1007800003FA06F6314300F00046B6F1004F02D1FD
:100790001C4EF16101E01B4E7160F0BD30B50022CE
:1007A0008B071C0F0F2303FA04F2164B08338C102F
:1007B00053F824309343134C08348D1044F82530FB
:1007C00023468C1053F824308C07240F00FA04F4CD
:1007D00023430C4C08348D1044F8253030BD0A49B1
:1007E000DC3108607047000000080140000C014047
:1007F000001001400014014000180140001C01409D
:10080000002001400000014000002042DF48006855
:1008100040F00100DD49086008464068DC490840B6
:10082000DA49486008460068DA490840D749086054
:100830000846006820F4802008600846406820F4DC
:10084000FE0048604FF41F0088607047CF49096878
:1008500021F48031CD4A11601146096821F48021CC
:100860001160B0F5803F03D0B0F5802F0ED106E0C7
:10087000C649096841F48031C44A116007E0C349A0
:10088000096841F4A021C14A116000E000BF00BF27
:10089000704710B501460022002300204A11012AAA
:1008A00002D1BA4C236806E0022A02D1B74C236A6F
:1008B00001E0B64C636A01F01F02012494401C4021
:1008C0000CB1012000E0002010BD38B500200090E0
:1008D0000024002500BF3120FFF7DBFF054600980C
:1008E000401C00900098B0F5A06F01D0002DF2D010
:1008F0003120FFF7CEFF08B1012400E0002420469C
:1009000038BD01460020A14A106820F0F80040EAF6
:10091000C10010607047A04908607047024600207F
:100920009A4B586820F47C1042EA01031843974B15
:100930005860704798490866704701460020934AFE
:10094000506820F003000843506070478F484068AB
:1009500000F00C007047014600208C4A506820F0DF
:10096000F00008435060704701460020874A5068F5
:1009700020F4E06008435060704701460020834A3D
:10098000506820F4605040EAC1005060704729B1BF
:100990007E4A527A02437D4B5A7204E07B4A527A75
:1009A00082437A4B5A7270477B49D831086070474E
:1009B00001460020754A506820F4404008435060CA
:1009C00070470021714A20321170704A82F820105D
:1009D000012802D004280AD104E001216B4A203208
:1009E000117005E00521694A2032117000E000BF56
:1009F00000BF70476949086070476449096A01434C
:100A0000624A11627047654944390860704730B5E1
:100A100000210022002400235C4D6D6805F00C01CC
:100A200021B1042905D0082923D105E05C4D0560DA
:100A300022E05B4D05601FE0544D6D6805F47012B7
:100A4000524D6D6805F48034022505EB92421CB9C5
:100A5000544D554305600BE04C4D6D6805F4003571
:100A60001DB1504D5543056002E04D4D55430560A5
:100A700002E04B4D056000BF00BF444D6D6805F0BE
:100A8000F0010909484D6B5C0568DD4045603F4D4C
:100A90006D6805F4E061090A434D6B5C4568DD4013
:100AA00085603A4D6D6805F46051C90A3E4D6B5C36
:100AB0004568DD40C560354D6D6805F44041890BE2
:100AC0003A4D6B5CC568B5FBF3F5056130BD29B1E6
:100AD0002E4A526902432D4B5A6104E02B4A526957
:100AE00082432A4B5A61704729B1284A92690243CE
:100AF000264B9A6104E0254A92698243234B9A610E
:100B0000704729B1214AD2690243204BDA6104E0DF
:100B10001E4AD26982431D4BDA61704729B11B4AD4
:100B2000D2680243194BDA6004E0184AD268824363
:100B3000164BDA60704729B1144A12690243134B0D
:100B40001A6104E0114A12698243104B1A6170471E
:100B500012494039086070470F49C86470470B4913
:100B6000C87170470948406A40F080700749486280
:100B7000704701460020054A92680A400AB10120E8
:100B800000E0002070470149887270470010024061
:100B90000000FFF8FFFFF6FE0000424280044242E0
:100BA00000127A0000093D001400002024000020FB
:100BB00001684FF6FE721140016000210160416042
:100BC0008160C1608D49884208D18C4908394968E3
:100BD00041F00F01894A083A51608AE0874914318F
:100BE000884208D185490839496841F0F001834AB3
:100BF000083A51607DE081492831884208D17F4917
:100C00000839496841F470617C4A083A516070E0E3
:100C10007A493C31884208D178490839496841F419
:100C20007041764A083A516063E074495031884215
:100C300008D172490839496841F470216F4A083A6D
:100C4000516056E06D496431884208D16B490839DA
:100C5000496841F47001694A083A516049E06749BE
:100C60007831884208D165490839496841F0706196
:100C7000624A083A51603CE06149884206D1011F4E
:100C8000096841F00F01021F116032E05C49143124
:100C9000884208D15A49091F096841F0F001584AB1
:100CA000121F116025E056492831884208D1544965
:100CB000091F096841F47061514A121F116018E060
:100CC0004F493C31884208D14D49091F096841F418
:100CD00070414B4A121F11600BE049495031884264
:100CE00007D14749091F096841F47021444A121F7E
:100CF0001160704710B50022026847F6F0739A43FE
:100D00000C6A8B6823430C6923434C6923438C6929
:100D10002343CC6923434C6A23438C6A23431A43FD
:100D20000260CB6843600B6883604B68C36010BD92
:100D30000021016041608160C160016141618161A8
:100D4000C161016241628162704721B1026842F073
:100D50000102026004E002684FF6FE731A4002606E
:100D600070471AB103680B43036002E003688B43CA
:100D700003607047416070470146486880B2704721
:100D800001460020002201F080531BB11C4B083BA0
:100D90001A6802E0194B083B1A6802EA01030BB11A
:100DA000012000E00020704700F0805119B1144983
:100DB000091F086002E01149083948607047014680
:100DC0000020002201F080531BB10D4B083B1A6834
:100DD00002E00A4B083B1A6802EA01030BB101204A
:100DE00000E00020704700F0805119B10449091F4C
:100DF000086002E001490839486070470800024075
:100E00000804024010B50446FB48844209D1012180
:100E10008803FFF783FE00214FF48040FFF77EFE3A
:100E200032E0F648844209D101214804FFF783FEED
:100E300000214FF40030FFF77EFE25E0F0488442A9
:100E400009D101218804FFF776FE00214FF48020AC
:100E5000FFF771FE18E0EB48844209D10121C80474
:100E6000FFF769FE00214FF40020FFF764FE0BE05E
:100E7000E548844208D101210805FFF75CFE002106
:100E80004FF48010FFF757FE10BD2DE9F04786B0F4
:100E900005460E460024A24600BFA1460027B089A1
:100EA00000B100BF2F462C8A4CF6FF700440F0883A
:100EB00004432C82AC894EF6F3100440B08831898B
:100EC0000843718908430443AC81AC8A4FF6FF4064
:100ED0000440B0890443AC8201A8FFF798FDC648DE
:100EE000874202D1DDF810A001E0DDF80CA0A8894E
:100EF00000F4004040B10AEBCA0000EB0A10316870
:100F00004900B0FBF1F807E00AEBCA0000EB0A1059
:100F100031688900B0FBF1F86420B8FBF0F00401FF
:100F20002009642101FB1089A88900F4004040B128
:100F3000322000EBC900B0FBF1F000F007000443E1
:100F400008E0322000EB09106421B0FBF1F000F062
:100F50000F0004432C8106B0BDE8F0874FF4165112
:100F6000016000218180C18001810C21418100212B
:100F70008181704710B502460020108A4FF2FF03AE
:100F800018400B884C8823438C882343CC88234308
:100F90001843108210BD0021018041808180C180F2
:100FA000704721B1828942F40052828104E0828933
:100FB0004DF6FF731A4082817047F0B50346002456
:100FC00000260025002040F66A17B94200D100BF74
:100FD0001846C1F3421401F01F06012707FA06F56F
:100FE000012C01D10C3004E0022C01D1103000E0C2
:100FF00014301AB107682F43076002E00768AF4357
:101000000760F0BD1AB1838A0B43838202E0838AB2
:101010008B4383827047028A4FF6F0731A40028234
:10102000028A0A430282704782894FF2FF731A4094
:10103000828182890A438281704721B1828942F08C
:101040000202828104E082894FF6FD731A40828198
:101050007047028A4FF6DF731A400282028A0A43FF
:101060000282704721B1028A42F48042028204E087
:10107000028A4BF6FF731A4002827047C1F30802DE
:101080008280704701468888C0F3080070478189D4
:1010900041F0010181817047028BD2B20283028B41
:1010A00042EA012202837047028B02F47F420283EC
:1010B000028B0A430283704721B1828A42F02002E8
:1010C000828204E0828A4FF6DF731A408282704780
:1010D00021B1828A42F01002828204E0828A4FF6B5
:1010E000EF731A408282704721B1828A42F008026F
:1010F000828204E0828A4FF6F7731A408282704738
:1011000021B1828942F40042828103E08289C2F3E4
:101110000E028281704721B1828A42F4006282828B
:1011200004E0828A4FF2FF731A4082827047828AFB
:101130004FF6FB731A408282828A0A43828270478A
:1011400021B1828A42F00202828204E0828A4FF652
:10115000FD731A408282704702460020B1F5007F7D
:1011600000D100BF13880B400BB1012000E000202C
:10117000704701F40072B2F5007F00D100BFCA438E
:101180000280704770B5024600240023002500202D
:1011900040F66A16B14200D100BFC1F3421501F01A
:1011A0001F03012606FA03F3012D02D1968933406D
:1011B00006E0022D02D1168A334001E0968A3340C0
:1011C0000C12012606FA04F41688344013B10CB14F
:1011D000012000E0002070BD10B50022002340F681
:1011E0006A14A14200D100BF0A1201249440A3B2A4
:1011F000DC43048010BD0000003801400044004082
:1012000000480040004C00400050004010B504462B
:10121000BE48844208D101218014FFF77FFC0021E1
:10122000A014FFF77BFC16E0B948844208D10121E5
:101230000014FFF780FC00212014FFF77CFC0AE07B
:10124000B448844207D10121C013FFF774FC002188
:10125000E013FFF770FC10BD10B50022028802F405
:1012600041520B884C8823438C882343CC882343EA
:101270000C8923434C8923438C892343CC89234302
:101280001A430280838B4FF2FF74234083830B8ABF
:10129000038210BD2DE9F04F85B005460C464FF096
:1012A000000902274FF000084FF0010B0026B2465C
:1012B000A88B4FF240010840A88302202884B5F88B
:1012C0001C90A068022801D100BF38E0A08810B9A6
:1012D0004FF0010B01E04FF0020B8D48854200D129
:1012E00000E000BF6846FFF792FBDDF800A0E08851
:1012F000B0F5007F0AD14FEA1A2000EB80004000D1
:10130000A168B0FBF1F0401D86B20BE04FEA4B1034
:10131000BAFBF0F000EB80004000A168B0FBF1F0F8
:10132000401D86B20A20B6FBF0F606F00108A6EBD7
:101330000800C0F34F074FF6FF7000EA0828022F9D
:1013400001DBFF2F02DD02274FF00008E08840EAB2
:10135000080038432884A088A1890843618808438D
:101360002188084340F4006040EA0909A5F81C9070
:1013700005B0BDE8F08F0021018041808180C180EF
:10138000018141818181C181072101827047002152
:10139000018041808180C1800221816000218181A2
:1013A000704721B1028842F04002028004E00288C6
:1013B0004FF6BF731A400280704721B1828B42F40E
:1013C0008062828304E0828B4FF6FF331A4082836F
:1013D000704730B5002400230C110125A540ABB2A5
:1013E0001AB185881D43858002E085889D438580EC
:1013F00030BD1AB183880B43838002E083888B431E
:1014000083807047818170470146888970474FF615
:10141000FF62914204D0028842F48072028004E0AC
:1014200002884FF6FF631A400280704721B182881C
:1014300042F00402828004E082884FF6FB731A4077
:101440008280704702884FF2FF731A400280028840
:101450000A4302807047018841F48051018070473F
:1014600021B1028842F40052028004E002884DF665
:10147000FF731A400280704702460020012901D004
:10148000108B00E0908A70470146088A7047B1F5DA
:10149000804F04D1028842F48042028004E0028836
:1014A0004BF6FF731A4002807047024600201389F2
:1014B0000B400BB1012000E000207047CA430281BD
:1014C0007047F0B50246002000240023002501F0FB
:1014D0000F070126BE40B4B20B1101269E40B3B2E5
:1014E000968806EA03051689264016B10DB101203B
:1014F00000E00020F0BD10B5002201F00F04012330
:10150000A3409AB2D343038110BD000000300140D4
:1015100000380040003C00400246002005E011F881
:10152000013B02F8013B431CD8B20B78002BF6D1EB
:10153000137070472DE9F04105460E46144600270A
:1015400014B90020BDE8F0811DB9042020700020EE
:10155000F8E71EB90C2020700020F3E7FE48007861
:10156000002803DD112020700020EBE728780128F7
:1015700008D0022807D0032802D0042804D100E0B4
:1015800000BF00BF00BF03E0012020700020D9E7AA
:1015900000BF01F079FC074605F10F013046FFF767
:1015A000BBFF8046384601F073FC002020704046A7
:1015B000C8E70146002002E0491C421CD0B20A786C
:1015C000002AF9D170472DE9F04105460E46144630
:1015D0004FF000080CB9BDE8F08115B90420207067
:1015E000F9E716B90C202070F5E7DB4800780028F1
:1015F00002DD12202070EEE72878012808D00228AA
:1016000007D0032802D0042804D100E000BF00BFA7
:1016100000BF02E001202070DDE700BF01F034FCD4
:1016200080463046FFF7C5FF07460F2F05DD4046D1
:1016300001F02EFC0B202070CDE7314605F10F00A4
:10164000FFF76AFF404601F023FC0020207000BF36
:10165000C1E77CB5002514E06946284601F05CF935
:10166000064666B9BD4850F8254044B1012C06D065
:10167000D4E9020100EB8100A0630198E063681CDB
:10168000C5B21F2DE8DD7CBD002402E0C82001F0BA
:1016900023FAB34800780028F8D0B24800686421E3
:1016A000B0FBF1F0AF4908600846006828B9002097
:1016B000AD490870FF2001F07AF900BF01F0E4FBAA
:1016C0000446AA480068AA4908600020A7490860A3
:1016D000204601F0DDFBA6480068A2490968B0FB7E
:1016E000F1F0C0F16400A049087001F0F2FAFFF7D0
:1016F000B0FF642001F0F0F9E0E700B587B0032007
:10170000002180229B4BCDE90132CDE903104FF639
:10171000FE701E23984A0090AFF2930000F0D3FEB3
:1017200006AA96A11E2001F056F807B000BD0024BD
:1017300000BF01F0A9FB04468C480068401C8B499F
:101740000860204601F0A4FB01F0C2FAF1E700B501
:1017500087B00320002180228C4BCDE90132CDE9F6
:1017600003104FF6FF701F23894A0090AFF241002B
:1017700000F0A9FE06AA87A11F2001F02CF807B0EF
:1017800000BD04E0002200F8012B4A1E91B200299E
:10179000F8DC704730B54FF4A0718248FFF7F1FFD5
:1017A000804B03F1200500240AE0002018705D60E2
:1017B0003F20D8730021197420332035601C84B277
:1017C000092CF2DB0020187058603F20D8730021EC
:1017D000197474487449086030BD30B54FF4B46171
:1017E0007248FFF7CEFF80215C48FFF7CAFF6F4BBE
:1017F00003F1500500240AE05D613F2083F84000BA
:1018000000214120C15450335035601CC4B2112C0A
:10181000F2D3002058613F2083F84000002141208E
:10182000C15400206249086060486249086030BDC8
:101830000022614B1A706149002004E0002201F887
:10184000012B421CD0B20428F8DB00225C4B1A703A
:101850005C4B1A705C4B1A605C4B1A60704700203E
:101860005B4908603C4908705A4908705A49087039
:101870005A4908705A4908603C4908603C49086068
:101880003849086036490870704710B501F01CFAF5
:10189000FFF7E5FFFFF7CCFFFFF79FFFFFF77AFFAA
:1018A000FFF755FFFFF729FF01F00FFA01F062FA89
:1018B00010BD4A480078012808D127480078FF2841
:1018C00004D225480078401C2349087070474549D8
:1018D000394A1278885C3949095C424A515C01EB0B
:1018E000C001384A1170704710B500243B48007899
:1018F000012830D101F0C8FA0446174800780028C2
:1019000004DD15480078401E13490870124800781D
:10191000F0B930480078D8B9FFF7D9FF29480078E6
:1019200027490978884213D00C482649097850F88D
:1019300021002549086008460068C06A401C096803
:10194000C86227480068401C2549086001F0B8FAC1
:10195000204601F09DFA10BD3D000020CC0600207D
:101960003C0000203400002030000020480000200F
:1019700038000020CC020020C804002075432F4FFF
:10198000532D49492053746174000000CC04002099
:10199000C806002075432F4F532D49492049646CD8
:1019A000650000008C0100202C0000204C07002066
:1019B000580000205000002041000020420000207C
:1019C0003F00002040000020540000204C00002078
:1019D000600000203E00002047000020460000205C
:1019E000280000203250000810B50024FE4800787E
:1019F000012811D101F048FA0446FC48007840B9AA
:101A0000FB480078FF2804D2F9480078401CF849C8
:101A10000870204601F03CFA10BD10B5002401F01A
:101A200033FA0446F1480078F0B9F1480078D8B9A3
:101A3000FFF74DFFEF480078EF490978884213D04F
:101A4000EE48EC49097850F82100ED490860084655
:101A50000068C06A401C0968C862EA480068401C07
:101A6000E849086001F027FA204601F011FA10BD9C
:101A700010B50024DC480078012822D101F004FAD6
:101A80000446DB480078002818DDD9480078401E5D
:101A9000D74908700846007860B9D448007828B95A
:101AA000204601F0F5F9FFF7B8FF0AE0204601F003
:101AB000EFF906E0204601F0EBF902E0204601F0E4
:101AC000E7F910BD10B5C848007890B9FFF7FFFEE0
:101AD000C8480078C8490870C848C649097850F80D
:101AE0002100C749086008460068C749086001F03E
:101AF000D2F910BD10B50024022000F0EDFF01F076
:101B0000C3F904460020C1490860204601F0C0F92D
:101B1000642000F0E1FF01F0B7F90446BB4800681B
:101B2000BB4908600120BB490870204601F0B0F9AC
:101B300010BD70B5002601F01CF901F0A5F90646AC
:101B4000B5480068401CB4490860304601F0A0F96F
:101B5000A5480078012853D1B048007820B1012869
:101B600004D0022809D103E001250BE0002509E09B
:101B700001250120A949087004E001250020A7499A
:101B8000087000BF00BF05B970BDA548046833E008
:101B900001F07AF90646208C50B3208C401E80B2AA
:101BA000208428BB94F8220000F0370040B114F8DC
:101BB000220F20F03700207001206070223C02E0EC
:101BC000002084F8230094F8220000F0080078B97F
:101BD0002634A07893490978084392490870207800
:101BE0009149085C6178084314F826198E4A5054CC
:101BF0006469304601F04CF994F824001F28C7D1DD
:101C000000BFC1E74FF48F707047704710B590F870
:101C1000262001F10B039B5C90F82740A34301F1C0
:101C20000B04A35423469B5C23B98B7A90F828407D
:101C3000A3438B7210BD2DE9F04F05460F46904629
:101C40009946A87A79490E5C05F10B00805D11F880
:101C500000B00BEBC60000F0FF0A684850F82A40BD
:101C6000002024F8200F00BFA07820EA0800A07010
:101C700084F80390A078203C00F0080068B994F83C
:101C80002800684909780843664908706648805DFD
:101C900094F8271008436449885529462046FFF7E1
:101CA000B5FF5046BDE8F08F10B5574A1268D061B5
:101CB000554A126892F8263000F10B02D25C524B62
:101CC0001B6893F827301A434F4B1B6893F8264044
:101CD00000F10B031A55827A4B4B1B6893F828309E
:101CE0001A438272484A126892F826104E4A525C91
:101CF000454B1B6893F827309A434B4B5A541A466E
:101D0000525C42B9404A126892F82830454A12782B
:101D10009A43444B1A7010BD0023837200F10B01EB
:101D2000002204E0002301F8013B531CDAB2042A2C
:101D3000F8DB704705E011F8013B00F8013B531E4A
:101D40009AB2002AF7DC70472DE9F84F05460E4697
:101D500017469846DDE90BABDDF82890002000908F
:101D600001F092F8009032480468002C7ED054F8BC
:101D7000140F2F490860009801F08AF844F8146C99
:101D800025740020A073E073A08144F810AC44F8DF
:101D9000089C44F80C7C24F804BC24F8028C607580
:101DA000E810A07405F007006074A17C0120884051
:101DB0002075617C01208840E0740020A060A06153
:101DC0002062E0616062A0623F2084F82C00143C35
:101DD000002141200155204600F0CAFF204600F0B6
:101DE00075FF01F051F825E0460000203D0000207D
:101DF0003E000020400000203F000020CC060020D4
:101E000054000020280000204C0000204800002042
:101E1000340000203C000020600000205C00002016
:101E200058000020410000204200002032500008ED
:101E3000500000200090194840F8254018480068DC
:101E400060610020A0611648006810B11448006865
:101E50008461134804602634A07812490978084345
:101E60001049087020781049085C00E010E06178A3
:101E7000084314F826190C4A50540C480078401CAA
:101E80000A490870009801F003F80020BDE8F88FB7
:101E9000009800F0FDFF4220F8E70000CC0600208B
:101EA0005800002041000020420000204700002090
:101EB00070B5044600260CB9002070BD20780328B8
:101EC00001D00020F9E700F0DFFF06462589002D4C
:101ED00002DD2089401E2081304600F0D9FF2846CF
:101EE000EBE770B505460026EF480078002801DDD5
:101EF000002070BD00F0C8FF0646EC48046800688A
:101F000020B1EA4800684068E8490860304600F0BF
:101F1000BFFF5CB1032020702581002060603F205E
:101F2000E073002121742046FFF7F6FE2046E0E72B
:101F30002DE9F0470446884615464FF0000915B9CB
:101F40002046BDE8F0871CB9042028702046F8E739
:101F50002078032803D0012028702046F1E7D248DA
:101F60000078002803DD0F2028702046E9E700F004
:101F70008BFF8146A07A08B1012700E00027B8F165
:101F8000000F03D0B8F1010F3ED11BE09FB93F20F5
:101F9000E0730021217400202070C4480068606054
:101FA00000202081C1480460484600F071FF0020F5
:101FB0002870002605E0484600F06AFF4920287096
:101FC000264628E005E00023012219462046FFF7B7
:101FD00032FEA07A0028F6D13F20E0730021217460
:101FE00000202070B1480068606000202081AF4868
:101FF0000460484600F04CFF012F01D1FFF70DFDB2
:1020000000202870002606E0484600F041FF072027
:102010002870264600BF00BF304692E72DE9F04108
:1020200005460E46144600270CB9BDE8F08115B9E7
:1020300004202070F9E72878032802D001202070BE
:10204000F3E799480078002802DD02202070ECE7D1
:1020500097480078002802DD0D202070E5E700F0A9
:1020600013FF07462889002808DD2889401E28819B
:10207000384600F00DFF00202070D6E78D4800683C
:1020800090F8220040F001008A49096881F8220096
:1020900000208849096881F8230086480068068482
:1020A0002846FFF701FE384600F0F2FEFFF7B5FCC8
:1020B00000F0EAFE07467F48006890F8230020B150
:1020C000012809D0022806D102E0002020700BE090
:1020D0000E20207008E000BF294676480068FFF710
:1020E00095FD0A20207000BF00BF002071490968DB
:1020F00081F822006F49096881F823006D49096859
:10210000C861384600F0C4FE00BF8EE72DE9F041FB
:1021100005460F4614464FF0000814B90020BDE8EC
:10212000F0811DB9042020700020F8E728780328EA
:1021300003D0012020700020F1E700F0A5FE8046CA
:10214000A87A20B300267FB1012F0CD107E002232B
:10215000012200212846FFF76EFD701CC6B2A87A46
:102160000028F4D109E000BF022301220021284603
:10217000FFF761FD701CC6B200BF00BF404600F013
:1021800087FEFFF74AFC0E2020703046C7E7404626
:1021900000F07EFE0020207000BFC0E770B504464E
:1021A00000250CB9042070BD2078032801D001203F
:1021B000F9E700F069FE0546A07A60B1002301222C
:1021C00019462046FFF737FD284600F061FEFFF76D
:1021D00024FC0020E7E720894FF6FF71884207D2F0
:1021E0002089401C2081284600F052FE0020DAE7BA
:1021F000284600F04DFE3220D5E72DE9F047044691
:102200000D464FF0000914B90420BDE8F0870DB960
:102210000920FAE72078032801D00120F5E700F033
:1022200033FE8146A07AA87104F10B07AE1C4FF073
:10223000000807E017F8010B06F8010B08F1010090
:1022400000F0FF08B8F1040FF4DB2089288048462D
:1022500000F01EFE0020D8E72DE9F04104460E46AE
:10226000154600270DB9BDE8F08114B90420287087
:10227000F9E72078032802D001202870F3E700F066
:1022800003FE0746002028702089002801DD2681F2
:1022900005E0A07A08B9268101E049202870384677
:1022A00000F0F6FD00BFDEE73D0000202C0000201E
:1022B0003E0000204C0000202DE9FF5F81460F46C4
:1022C00000200090B9F11F0F06DBB9F1FF0F03D01A
:1022D0002A2004B0BDE8F09F1F2F01DB2A20F8E779
:1022E00000F0D2FD0090F84850F8270020B1009887
:1022F00000F0CEFD2820ECE7B9F1FF0F03D1F34841
:10230000006890F82490F04850F8294024B90098CB
:1023100000F0BEFD2920DCE7012C04D1009800F07C
:10232000B7FD4320D5E74FEAE70807F00700039021
:10233000012000FA08F000F0FF0A01210398814013
:1023400001F0FF0B0020E04941F82900084640F861
:10235000274014F8266FA07802906078263C019000
:10236000DB48815D01980140E1B1D948805D019968
:102370008843D74988550846805D28B9D5480078F4
:1023800002998843D3490870D248007840EA0A008D
:10239000D0490870CE4810F8080040EA0B00CC493C
:1023A00001F80800E569E5B105F10B00805D0199D0
:1023B000884305F10B0188550846805D18B9A87A55
:1023C00002998843A872A87A40EA0A00A87205F127
:1023D0000B0010F8080040EA0B0005F10B0101F8B2
:1023E000080084F8247084F82680039884F8250077
:1023F00084F828A084F827B0009800F049FDB6487A
:102400000078012801D1FFF708FB002061E72DE9E2
:10241000FE4F06460F4690461C464FF000091F2C03
:1024200002DD2A20BDE8FE8F00F02EFD8146AB487C
:102430000078002804DD484600F02AFD3C20F1E742
:10244000A14850F8240060BB01209F4941F82400B6
:10245000484600F01DFD002342463946304600F054
:1024600039FC824600200090019003460246514606
:1024700002902046FFF768FC054635B9964800787B
:1024800001280CD1FFF7C9FA09E000F0FDFC8146F4
:1024900000208D4941F82400484600F0F9FC284608
:1024A000C0E7484600F0F4FC2820BBE702F0010337
:1024B00043B102F002032BB102E0491E002308C021
:1024C0000029FAD170472DE9F04F85B081468A4640
:1024D00093461C46DDE90F78129D002003901F2CC7
:1024E00003DD2A2005B0BDE8F08F00F0CDFC03909D
:1024F0007A480078002804DD039800F0C9FC3C20ED
:10250000F0E7714850F8240088BB01206E4941F87B
:102510002400039800F0BCFC2A4641463846FFF7E9
:10252000C5FF2B465A465146484600F0D3FB04905F
:102530001198CDE9008002953A4620460E9B0499F9
:10254000FFF702FC064636B96348007801280CD133
:10255000FFF763FA09E000F097FC039000205A4966
:1025600041F82400039800F093FC3046BAE7FFE7F7
:10257000039800F08DFC2820B4E770B505460026CE
:1025800056480078002801DD402070BD1F2D01D184
:102590003E20FAE71F2D03DBFF2D01D02A20F4E7B0
:1025A00000F072FC0646FF2D03D14848006890F801
:1025B0002450454850F8254024B9304600F068FCC6
:1025C0004320E2E7012C04D1304600F061FC3D20BD
:1025D000DBE714F8260F3E49085C617888432178D0
:1025E0003B4A505414F826091146085C30B994F857
:1025F000281038480078884336490870E06918B1D7
:102600002046E169FFF702FB0020208484F82200C5
:1026100084F8230032480078FF2804D2304800783C
:10262000401C2F490870304600F032FCFFF7EDFAED
:1026300000F02AFC06462A480078002804DD2848D5
:102640000078401E26490870204600F040FB2548CF
:102650000078401E2349087000201B4941F82500DE
:10266000A06930B90020616988611F49606908600C
:1026700005E0D4E905014861D4E9051088611B48EB
:1026800000686061194804603F2084F84000002120
:1026900041200155304600F0FBFB0F48007801282F
:1026A00001D1FFF7BAF900206FE72DE9F0410446A8
:1026B00000271F2C02D13E20BDE8F0811F2C17DB24
:1026C000FF2C15D02A20F7E7CC0600204C00002074
:1026D0004200002041000020460000203D00002074
:1026E0003E0000204700002058000020500000203D
:1026F000FF2C0BD100F0C8FB0746F148006890F8AA
:102700002960384600F0C4FB3046D5E700F0BCFB3A
:102710000746EC4850F8245025B9384600F0B8FB7D
:102720004320C9E7012D04D1384600F0B1FB3D201C
:10273000C2E73F2085F82900384600F0A9FB0020B9
:10274000BAE72DE9F04705460F4614464FF000085A
:1027500014B90020BDE8F0871F2D05DDFF2D03D043
:102760002A2020700020F5E71FB90C2020700020DF
:10277000F0E7D5480078002803DD11202070002004
:10278000E8E700F081FB8046FF2D03D1CC480068CC
:1027900090F82450CB4850F8256036B9404600F0F8
:1027A00077FB432020700020D4E7012E06D140465D
:1027B00000F06EFB432020700020CBE706F14001C3
:1027C0003846FEF7A9FE8146404600F061FB002036
:1027D00020704846BEE72DE9F04705460F461446EF
:1027E0004FF000090CB9BDE8F0871F2D04DDFF2D67
:1027F00002D02A202070F6E717B90C202070F2E7EB
:10280000B1480078002802DD12202070EBE700F0CC
:102810003BFB8146FF2D03D1A948006890F8245066
:10282000A84850F825602EB9484600F031FB4320F7
:102830002070D8E7012E05D1484600F029FB43203F
:102840002070D0E73846FEF7B4FE8046B8F10F0F8F
:1028500005DD484600F01CFB41202070C3E73946E7
:1028600006F14000FEF758FE484600F011FB00203C
:10287000207000BFB7E770B5054600261F2D01DBAD
:102880002A2070BD00F000FB06468E4850F8254017
:1028900024B9304600F0FCFA4620F2E7012C04D1BE
:1028A000304600F0F5FA4320EBE794F8220000F000
:1028B000080060B314F8220F20F00800207014F80C
:1028C0002209F8B9208CC8B92634A0787F49097844
:1028D00008437E49087020787D49085C6178084388
:1028E00014F826197A4A5054304600F0D1FA794843
:1028F0000078012809D1FFF790F806E0304600F093
:10290000C7FA02E0304600F0C3FA0020B9E73046CB
:1029100000F0BEFA4420B4E72DE9F04706460C4625
:102920004FF0000A1F2E04DDFF2E02D02A20BDE842
:10293000F0870CB90920FAE700202060606000F001
:10294000A3FA8246FF2E03D15D48006890F8246008
:102950005C4850F8265025B9504600F099FA4320BB
:10296000E5E7012D04D1504600F092FA4320DEE75E
:10297000287C00F0010020B9504600F089FA45207B
:10298000D5E70027D5F80C90D5F80880504600F020
:102990007FFA00E07F1C58F8041B0029FAD0B80029
:1029A0002060A9EB0700800060600020BFE72DE9F0
:1029B000F04105464FF000081F2D02D14720BDE829
:1029C000F0811F2D03DBFF2D01D02A20F7E700F057
:1029D0005BFA8046FF2D05D13948006890F82450F5
:1029E000012608E03648006890F82400A84201D18A
:1029F000012600E00026334850F8254024B940461F
:102A000000F046FA4820DAE7012C04D1404600F0F5
:102A10003FFA4320D3E794F826702D48C05D94F820
:102A2000271088432A49C8550846C05D30B994F834
:102A300028102648007888432449087094F822001A
:102A400040F0080084F82200404600F021FA012EF0
:102A500001D1FEF7E2FF0020B1E72DE9F041044685
:102A60000E4600271F2C04DDFF2C02D02A20BDE8D3
:102A7000F0810EB90920FAE700F006FA0746FF2CAC
:102A800003D10F48006890F824400E4850F82450B5
:102A900025B9384600F0FCF92920E8E7012D04D1DA
:102AA000384600F0F5F94320E1E750222946304648
:102AB000FFF740F9384600F0EBF90020D7E70000B7
:102AC0004C000020CC0600203D00002041000020EA
:102AD000420000204600002070B5054600267448DC
:102AE0000078002800DD70BD002D23DD00F0CCF95A
:102AF00006467048006890F826406F48005D6D49B2
:102B0000096891F8271088436B4908550846005D0D
:102B100040B96848006890F82810684800788843F1
:102B200066490870634800680584304600F0B0F9D3
:102B3000FEF773FF00BFD6E72DE9F04780460D464C
:102B400016461C465A480078002802DD5520BDE88C
:102B5000F087B8F1000F04D11DB916B90CB9542093
:102B6000F5E73B2D01DD5120F1E73B2E01DD522041
:102B7000EDE7B4F57A7F01DB5320E8E74FF47A7094
:102B800060434FF47A71B0FBF1F14FF4616008FBE0
:102B900000F0C5EB051200EB8200304400EB400270
:102BA000C2EBC01001EBC0074FEA1749BFB238466D
:102BB000FFF792FF0BE04FF40040FFF78DFF4FF45B
:102BC0000040FFF789FFA9F101001FFA80F9B9F170
:102BD000000FF0DC0020BAE770B5054600261F2D77
:102BE00001DB2A2070BD00F04FF90646344850F84A
:102BF000254024B9304600F04BF94320F2E7012C80
:102C000004D1304600F044F94320EBE7208C20B992
:102C1000304600F03DF95020E4E70020208494F88D
:102C2000220000F0370040B114F8220F20F03700E6
:102C3000207001206070223C02E0002084F8230014
:102C400094F8220000F00800A8B92634A0781B49A7
:102C5000097808431949087020781749085C617899
:102C6000084314F82619144A5054304600F010F95D
:102C7000FEF7D3FE02E0304600F00AF90020B1E78B
:102C800070B5002500F000F905460E480468284696
:102C900000F0FEF8204670BD70B50446002500F037
:102CA000F3F8054607480460284600F0F1F870BDC7
:102CB0003D0000204C000020420000204100002088
:102CC000CC060020600000207047704770477047B6
:102CD0007047704770B5044610464FF08075056028
:102CE000051F28462C606FF00106051F28462E6040
:102CF0004FF01236051F28462E604FF00336051F91
:102D000028462E604FF00236051F28462E607610AA
:102D1000051F28462E60051F284629604FF01136F2
:102D2000051F28462E604FF01036051F28462E60DE
:102D30004FF00936051F28462E604FF00836051F54
:102D400028462E604FF00736051F28462E604FF0AC
:102D50000636051F28462E604FF00536051F28460B
:102D60002E604FF00436051F28462E6070BD704758
:102D700070477047174818481848194819481A48A2
:102D80001A481B481B481C481C481D481D481E4823
:102D90001E481F481F4820482048214821482248F3
:102DA00022482348234824482448254825482648C3
:102DB00026482748274828482848294829482A4893
:102DC0002A482B482B482C482C482D482D4800BF1A
:102DD0007047000034510008385100083C51000889
:102DE0003E5100084051000842510008445100087B
:102DF00046510008485100084A5100084C5100084B
:102E00004E5100085051000852510008545100081A
:102E100056510008585100085A5100085C510008EA
:102E20005E510008605100086251000864510008BA
:102E300066510008685100086A5100086C5100088A
:102E40006E5100087051000872510008745100085A
:102E500076510008785100087A5100087C5100082A
:102E60007E510008805100088251000884510008FA
:102E700086510008885100088A5100088C510008CA
:102E80008E51000890510008EFF3108072B6704721
:102E900080F3108870471D484FF0FF01017000203B
:102EA00080F309881A48012101701A484FF08051B7
:102EB000016062B6FEE717484FF08051016070472D
:102EC00014484FF080510160704772B6EFF30980EB
:102ED00028B1203880E8F00F0F490968086000B574
:102EE0000E4880475DF804EB0D480E490A780270E1
:102EF00009480D490A680260106890E8F00F203018
:102F000080F309884EF0040E62B6704722ED00E0AF
:102F10004600002004ED00E04C0000206F2D00086A
:102F20003F000020400000205400002030B51C4924
:102F3000B1F1807F00D31DE021F07F40401E4FF0B3
:102F4000E022506150170F22002807DA13071D0EE8
:102F5000144B00F00F04241F1D5503E013071C0E33
:102F6000114B1C5400BF00204FF0E022906107205D
:102F7000106100BF30BD10B5FDF7ABF9FFF7D6FF0C
:102F800000F054FD00F0A8F800F0F8F800F08CFA1A
:102F900000F0DCFE00F03CFA00F060FA10BD00002A
:102FA0004019010018ED00E000E400E008B500BFA2
:102FB0006A4600213A480068FFF730F839A201213B
:102FC000052000F0A8FA01F029F9F1E708B507E0BB
:102FD0006A46002137480068FFF720F801F056F9EB
:102FE000F6E708B507E06A46002133480068FFF7B6
:102FF00015F801F073FAF6E708B507E06A46002114
:103000002E480068FFF70AF801F0C9F9F6E701E079
:1030100000F0B8FFFCE710B50623294A0021AFF203
:103020001100FFF7F4F90823264A0021AFF2370018
:10303000FFF7EDF90A23244A0021AFF25900FFF708
:10304000E6F90E23214A0021AFF27F00FFF7DFF9F6
:1030500009231F4A0021AFF2AB00FFF7D8F9002087
:10306000FEF73FFF1B4908600020FEF73AFF1349B7
:1030700008600120FEF735FF0F4908600020FEF7C9
:1030800030FF0C4908600020FEF72BFF0449086060
:1030900010BDFFF7C0FF01E001F0B6F8FCE700004B
:1030A00078000020BDF8C8EBCCE1CABEC4A3CABDFD
:1030B0000000000074000020700000206C00002060
:1030C000A80D0020680E0020680F002028100020A6
:1030D000E81000206800002000B585B0012144F20E
:1030E0000400FDF701FD4FF40070ADF8100018204A
:1030F0008DF8130003208DF8120004A99848FDF7FD
:1031000037FA4FF48060ADF8100004208DF81300FA
:1031100004A99348FDF72CFA4FF4165000900020B4
:10312000ADF80400ADF80600ADF80800ADF80C00ED
:103130000C20ADF80A0069468A48FDF7A6FE012278
:1031400040F224418748FDF738FF01218548FDF70B
:1031500028FF05B000BD08B54FF4C060FDF73AF98F
:1031600025208DF8000001208DF801008DF8020067
:103170008DF803006846FDF732F908BD00B58BB045
:1031800001210846FDF7A3FCFFF7E5FF7548001D88
:10319000009075480190002002908020039000204C
:1031A0000490802005900020069007902020089031
:1031B000C001099000200A9069466C48FDF79AFD0D
:1031C00001216A48FDF7C1FD012240216548FDF754
:1031D00019FF0BB000BD70B504460D46E1B2614861
:1031E000FDF74CFF00BF40215E48FDF7B5FF012809
:1031F000F9D1204670BDF0B503460D4616460027AE
:1032000029460A2E03D0002008702846F0BD33B9A5
:10321000302001F8010B002008702846F6E7002B4B
:1032200003DA2D2001F8010B5B4242F210720DE02F
:1032300093FBF2F404B937B104F1300001F8010B4B
:1032400004FB123301270A2092FBF0F2002AEFDC84
:10325000002008702846D9E70FB470B586B006463E
:103260000CA8019073E00B9800785C281CD10B9897
:10327000401C0B9000786E2809D072280FD10D21C8
:103280003046FDF7FBFE0B98401C0B900BE00A212B
:103290003046FDF7F3FE0B98401C0B9003E00B98B3
:1032A000401C0B9000BF4BE00B980078252840D1C4
:1032B0000B98401C0B900078642818D0732833D1E9
:1032C000019810C801900BE021783046FDF7D6FE3A
:1032D00000BF40213046FDF73FFF0028F9D0641CB5
:1032E00020780028F0D10B98401C0B9020E001982A
:1032F00020C801900A2202A92846FFF77CFF02ACF1
:103300000BE021783046FDF7B9FE00BF4021304682
:10331000FDF722FF0028F9D0641C20780028F0D1A6
:103320000B98401C0B9003E00B98401C0B9000BFC7
:1033300006E00B9810F8011B0B903046FDF79EFE3F
:1033400000BF40213046FDF707FF0028F9D00B9859
:103350000078002887D106B070BC5DF814FB00002F
:103360000008014000380140EC10002058000240E5
:1033700070B50546002401214948FDF7A8F902214E
:103380004748FDF7A4F940214548FDF79EF90DB1E6
:10339000102D18DD002413E001214148FDF797F9B5
:1033A00002213F48FDF791F90A23002211461046F9
:1033B000FFF7C2FB02213A48FDF789F9601CC4B24D
:1033C000102CE9DB1FE000241BE0681EA04204D1A2
:1033D00001213348FDF779F903E001213048FDF779
:1033E00076F902212E48FDF770F90A2300221146D2
:1033F0001046FFF7A1FB02212948FDF768F9601C80
:10340000C4B2102CE1DB40212548FDF760F970BD06
:1034100008B501210820FDF767FB6320ADF8000027
:1034200003208DF8020010208DF8030069461C4827
:10343000FDF79EF801211A48FDF747F902211848C7
:10344000FDF743F920211648FDF73FF940211448C4
:10345000FDF73DF90020FFF78BFF08BD08B50121FE
:103460001020FDF741FB40F28670ADF8000003200C
:103470008DF8020010208DF8030069460948FDF719
:1034800077F880210748FDF720F94FF4807105484F
:10349000FDF71BF906210348FDF717F908BD0000E9
:1034A000000C01400010014010B500F053F900F08D
:1034B0000DFA00F092F910BD70B588B006460C46C2
:1034C000154620226946304600F082FA6A462946AF
:1034D000204600F0B2F908B070BD7FB506460C4634
:1034E000154610226946304600F072FA6A462946AF
:1034F000204600F0BBF97FBD7CB506460C4615465C
:1035000005226946304600F063FA6A46294620469D
:1035100000F093F97CBD2DE9F04180460F46154639
:10352000002457E0285DB0281CDB285DF72819DC53
:10353000601C285CA12815DB285DB0385E2100FBEB
:1035400001F6601C285C00F2AD20064476013A4684
:1035500041463046FFF7B0FFA01CC4B207F110008F
:10356000C7B237E0285DA1281BDB285DA32818DC43
:10357000601C285CA12814DB285DA1385E2100FBBB
:1035800001F6601C285CA138064476013A464146A3
:103590003046FFF791FFA01CC4B207F11000C7B27C
:1035A00018E0285D202813DB285D7E2810DC285DCC
:1035B000A0F1200636012E4806443A4641463046E0
:1035C000FFF78BFF601CC4B207F10800C7B201E02F
:1035D000601CC4B2285D0028A4DCBDE8F0812DE9A0
:1035E000F04180460E461546002417E0285D20284D
:1035F00012DB285D7E280FDC285DA0F12007FF008C
:103600001C480744324641463846FFF775FF601CA8
:10361000C4B2B01DC6B201E0601CC4B2285D00286F
:10362000E4DCBDE8F081F8B505460E46144664209A
:10363000B4FBF0F03030C0B28DF800006420B4FB71
:10364000F0F100FB11400A21B0FBF1F030308DF8B1
:1036500001000A20B4FBF0F100FB114030308DF87E
:1036600002006A4631462846FFF755FFF8BD0000C4
:1036700080CF0300C0BF030008B501210420FDF77F
:1036800033FA40F60F00ADF8000003208DF8020079
:1036900010208DF8030069468B48FCF769FF08BDD0
:1036A00070B504464FF400618748FDF710F8042117
:1036B0008548FDF70CF8002517E002218248FDF748
:1036C00006F804F0800020B101217F48FCF7FDFFDF
:1036D00003E001217C48FCF7FAFF02217A48FCF75D
:1036E000F4FF60000446681CC5B2082DE5DB4FF40A
:1036F00000617548FCF7E9FF70BD70B504464FF4F2
:1037000000617148FCF7E3FF04216F48FCF7DDFF1F
:10371000002517E002216C48FCF7D9FF04F0800077
:1037200020B101216848FCF7D0FF03E00121664881
:10373000FCF7CDFF02216448FCF7C7FF6000044698
:10374000681CC5B2082DE5DB4FF400615E48FCF74C
:10375000BCFF70BD10B5FFF78FFF08215A48FCF77A
:10376000B6FF08215848FCF7B0FFE220FFF798FFAA
:103770002C20FFF795FF2E20FFF792FF2F20FFF759
:103780008FFF2320FFF78CFF8120FFF789FF302078
:10379000FFF786FFA220FFF783FFC820FFF780FF17
:1037A000A020FFF77DFF4020FFF77AFFAF20FFF753
:1037B00077FF10BD70B505460C46641E05F1AF00DD
:1037C000FFF76EFFC4F3031101F11000FFF768FF6C
:1037D00004F00F00FFF764FF70BD70B5002414E023
:1037E00004F1B000FFF75CFF1020FFF759FF002045
:1037F000FFF756FF002504E00020FFF77EFF681C5E
:10380000C5B2842DF8DB601CC4B2092CE8DB70BDA6
:1038100070B5044600250DE00121681CFFF7CAFFC2
:10382000002604E02078FFF768FF641C761C802ED9
:10383000F8D36D1C082DEFD370BD2DE9F04106467D
:103840008846144600250DE070194146FFF7B2FF87
:10385000002704E02078FFF750FF641C7F1C102F26
:10386000F8D36D1C022DEFD3BDE8F0812DE9F041B6
:1038700006468846144600250DE070194146FFF7BC
:1038800099FF002704E02078FFF737FF641C7F1CB6
:10389000082FF8D36D1C022DEFD3BDE8F0812DE980
:1038A000F04106460F46144639463046FFF782FF80
:1038B000002504E02078FFF720FF641C6D1C062D16
:1038C000F8D3BDE8F08100000008014000B587B0E2
:1038D00001212420FDF708F901210803FDF704F96F
:1038E0002020ADF8040003208DF8060018208DF884
:1038F000070001A94448FCF73BFE4020ADF8040056
:1039000001A94148FCF734FE8020ADF8040001A96C
:103910003D48FCF72DFE1020ADF804008DF807009F
:1039200001A93948FCF724FE10213748FCF7CDFEE9
:103930000020ADF808004FF48270ADF80A000020B6
:10394000ADF80C000220ADF80E000120ADF810001B
:103950004002ADF812000820ADF814000020ADF8C8
:1039600016000720ADF8180002A92848FDF774FCDE
:1039700001212648FDF715FD07B000BD10B504462E
:1039800000BF02212148FDF790FD0028F9D0214613
:103990001E48FDF737FD00BF01211C48FDF785FDDE
:1039A0000028F9D01948FDF72FFDC0B210BD10B5A1
:1039B00004460320FFF7E2FFC4F30740FFF7DEFFF2
:1039C000C4F30720FFF7DAFFE0B2FFF7D7FF10BD1F
:1039D0002DE9F04107460D461646002410210A48FD
:1039E000FCF775FE3846FFF7E2FF00BF04E0FF205A
:1039F000FFF7C4FF2855641CB442F8DB10210248CD
:103A0000FCF763FEBDE8F081000801400030014092
:103A100001B5002006E0032100BF0A1EA1F101014B
:103A2000FBD1401C009A9042F5D308BD08B5012196
:103A30000420FDF759F84FF48050ADF80000042041
:103A40008DF8030003208DF802006946B548FCF7A5
:103A50008FFD08BD08B54FF48050ADF80000102070
:103A60008DF8030003208DF802006946AD48FCF78D
:103A70007FFD08BD08B54FF48050ADF8000004206C
:103A80008DF8030003208DF802006946A548FCF775
:103A90006FFD08BD70B50024FFF7DCFF4FF48051C7
:103AA000A048FCF712FE0320FFF7B2FF002522E03A
:103AB0006410FFF7CFFF4FF480519A48FCF707FEE0
:103AC0000220FFF7A5FF4FF480519648FCF7FDFD5B
:103AD000FFF7D0FF0A20FFF79BFF4FF4805191487A
:103AE000FCF7D9FD012801D144F080043220FFF712
:103AF0008FFF681CC5B2082DDADB204670BD70B59B
:103B00000446FFF7A7FF4FF480518648FCF7DDFD20
:103B10000220FFF77DFF002526E004F00106641077
:103B200086B14FF480517F48FCF7D1FD0220FFF7AA
:103B30006FFF4FF480517B48FCF7C7FD3C20FFF737
:103B400067FF0FE04FF480517648FCF7C0FD3C2042
:103B5000FFF75EFF4FF480517248FCF7B6FD02207C
:103B6000FFF756FF681CC5B2082DD6DB70BD10B537
:103B70000024FFF76FFF4FF480516A48FCF7A5FD62
:103B80000320FFF745FF4FF480516648FCF79FFD87
:103B900040F2EE20FFF73CFF4FF480516148FCF704
:103BA00094FDFFF767FF0F20FFF732FF04E0601C72
:103BB00084B20120FFF72CFF4FF480515948FCF7E5
:103BC0006AFD10B1B4F5FA7FF1DBB4F5FA7F06DBDC
:103BD00055A201210520FFF79EFC002010BD002406
:103BE00004E0601C84B20120FFF712FF4FF4805103
:103BF0004C48FCF750FD18B942F210708442F0DBDB
:103C000042F21070844206DB4BA201210520FFF72F
:103C100082FC0020E2E70120E0E72DE9F0470027E1
:103C200000240025A0462CE0601CC4B2FFF72CF94C
:103C30008146FFF79CFF0746CC20FFF760FF44203A
:103C4000FFF75DFF4846FFF723F94FF47A73002230
:103C500011461046FEF770FFFFF716F98146FFF791
:103C600086FF0746CC20FFF74AFFBE20FFF747FF3D
:103C7000FFF710FF8046FFF70DFF05464846FFF7A8
:103C800007F90FB90A2CCFDB0A2C04DB00244FF410
:103C9000FA60BDE8F08700242E4648EA0626304642
:103CA000F7E770B586B0002406E0FFF7B6FF01A97C
:103CB00041F82400601CC4B2052CF6DB00241FE090
:103CC000002517E001A9681C51F8200051F82510C3
:103CD00088420DDA01A9681C51F8206001A850F84B
:103CE000251001AA681C42F8201001A840F82560A0
:103CF000681CC5B2C4F10400A842E3DC601CC4B275
:103D0000042CDDDB0026012405E001A850F8240086
:103D10000644601CC4B2042CF7DB032096FBF0F0D1
:103D200006B070BD00080140CEC2B6C8B4ABB8D072
:103D3000C6F7B4EDCEF30000CEC2B6C8B4ABB8D06F
:103D4000C6F7CEB4CACDB7C50000000008B5012142
:103D50000820FCF7C9FE4FF47060ADF80000102099
:103D60008DF8030003208DF8020069467948FCF7BE
:103D7000FFFB4FF47040ADF8000048208DF80300C1
:103D800003208DF8020069467248FCF7F1FB4FF4FE
:103D900070617048FCF79BFC08BD08B54FF470607B
:103DA000ADF8000010208DF8030003208DF802000C
:103DB00069466848FCF7DCFB4FF47040ADF8000042
:103DC00048208DF8030001208DF802006946614803
:103DD000FCF7CEFB4FF470615E48FCF778FC08BD41
:103DE00008B54FF47060ADF8000048208DF803006E
:103DF00003208DF8020069465648FCF7B9FB4FF4E2
:103E00007040ADF8000010208DF8030003208DF8FD
:103E1000020069464F48FCF7ABFB4FF470414D4838
:103E2000FCF755FC08BD2DE9F04104460D4600277E
:103E300000260020207028604648FCF735FC00F47E
:103E40007047B7F5704F7CD0FFF7CAFF0A230022F6
:103E500011461046FEF770FE3E48FCF725FC00F4C4
:103E60007066B6F5706F70D047EA0600000AD72872
:103E700038D012DCB72841D008DC77284AD07B281C
:103E800045D07D2840D07E2847D13AE0BB2832D0AB
:103E9000BD282DD0BE2840D127E0E72816D006DC6B
:103EA000DB281CD0DD2817D0DE2836D111E0EB2826
:103EB00009D0ED2804D0EE282FD10F2020702FE05C
:103EC000102020702CE00D20207029E00E202070A2
:103ED00026E00920207023E00A20207020E00B203B
:103EE00020701DE00C2020701AE00520207017E0E3
:103EF0000620207014E00720207011E008202070B8
:103F00000EE0012020700BE00220207008E003206A
:103F1000207005E00420207002E00020207000BF27
:103F200000BF08E00A23002211461046FEF704FEF7
:103F30002868401C28600748FCF7B6FB00F4706056
:103F400000E002E0B0F5706FECD1FFF726FFBDE8AE
:103F5000F0810000000C014008B500BF6A4640F641
:103F6000B83169480068FEF759F868480068FEF7FC
:103F700015F967480068FEF711F99DF80000002860
:103F8000ECD008BD1CB50020019000900024BAE0E0
:103F9000694601A8FFF747FF0098B0F5967F13D94F
:103FA0000020FFF7E5F9002404E0002059490855F6
:103FB000601CC4B2082CF8DB002057490870524836
:103FC0000068FEF7EBF898E09DF8040011286FD226
:103FD000DFE800F091090A0B0C0D0E0F10111213FF
:103FE0001415163A620000BF00BF00BF00BF00BF3B
:103FF00000BF00BF00BF00BF00BF00BF00BF00BFC9
:104000009DF80400FFF7B4F9424800789DF80410C9
:10401000884209D09DF804003E490870012048708C
:1040200088700020C8700AE03A484078401C39493E
:10403000487008464078042801D101204870324871
:104040000068FEF7ABF857E00098B0F5967F07D907
:104050000020314908702E480068FEF79FF81AE0EA
:104060002D480078401C2C49087008460078032829
:1040700001DB012008709DF8042001210720FFF7D3
:10408000D2FA2548027850210720FFF7CCFA2348BE
:104090000068FEF783F82FE00098B0F5967F08D906
:1040A00000201D4908701A480068FEF777F821E0E3
:1040B00021E01948007810B9022017490870164805
:1040C0000078401C14490870084600780A2801DB73
:1040D000032008709DF8042001210720FFF7A3FAB0
:1040E0000D48027850210720FFF79DFA0B48006821
:1040F000FEF754F800E000BF00BF32230022114653
:104100001046FEF719FD43E7680000206C00002010
:104110007000002082000020810000207800002034
:1041200010B54B4800780F2819D2DFE800F01808C6
:104130000B0C0D0E0F10111213141516170000F0B2
:10414000E8FB0DE00CE00BE00AE009E008E007E026
:1041500006E005E004E003E002E001E000E000BF6B
:1041600000BF10BDF8B56A4600213A480068FDF767
:1041700055FF39480068FEF711F835488078012866
:1041800041D1334805784678962400BFC8230022E1
:1041900011461046FEF7D0FC052094FBF0F100FB21
:1041A000114098B901202D49087061202C490870F0
:1041B000052094FBF0F02B490870254880780128F1
:1041C00000D00FE028480068FDF7E8FF601EC4B289
:1041D0001F480078A84205D11D484078B04201D15F
:1041E000002CD3DC00BF74B919488078401C1849F2
:1041F00088701E480068FDF7D1FF17480068FDF77A
:10420000CDFFFFF78DFFF8BD10B5FFF7ABFFC8235B
:10421000002211461046FEF78FFC10BD10B5144861
:104220000078012804D0022808D003280DD10BE023
:1042300010A201210846FFF76EF907E010A2012144
:104240000846FFF768F901E000E000BF00BF10BDBD
:104250008200002068000020700000207D00002007
:104260007E0000207F000020740000206C000020F1
:1042700081000020BCD3CBAEB2E2CAD40000000063
:10428000BDF8CBAEBDD7B6CE0000000008B58C4857
:1042900000780A2190FBF1F201FB12003030C0B22D
:1042A0008DF8020086480078642190FBF1F201FB52
:1042B00012000A2190FBF1F03030C0B28DF80100FD
:1042C0007F480078642808DA0DF101027D48017802
:1042D0007D480078FFF71FF90FE0794800786421E6
:1042E00090FBF1F03030C0B28DF800006A4675489E
:1042F000017875480078FFF70EF908BD10B5002366
:104300001A4619460520FEF717FC80216F48FCF776
:10431000DEF900231A4603211846FEF70DFC802122
:104320006A48FCF7D2F900231A4619460320FEF723
:1043300003FC01206649C87066480068FDF72EFF3F
:1043400000231A4619460220FEF7F6FB80215F483B
:10435000FCF7BDF900231A4603211846FEF7ECFBD3
:1043600080215A48FCF7B1F900231A461946052066
:10437000FEF7E2FB80215548FCF7A9F900231A4615
:1043800003211846FEF7D8FB80215048FCF79DF921
:1043900000231A4619460520FEF7CEFB10BD10B5C6
:1043A0004B4800780F2874D2DFE800F07308181F1C
:1043B000262D343B424950575E656C004448407896
:1043C000012804D0022805D0032805D103E0FFF717
:1043D00095FF01E000E000BF00BF5AE000231A464D
:1043E00019460120FEF7A8FB53E000231A461946A0
:1043F0000120FEF7A1FB4CE000231A4619460120DC
:10440000FEF79AFB45E000231A4619460120FEF705
:1044100093FB3EE000231A4619460120FEF78CFB71
:1044200037E000231A4619460120FEF785FB30E0ED
:1044300000231A4619460120FEF77EFB29E00023DF
:104440001A4619460120FEF777FB22E000231A46A0
:1044500019460120FEF770FB1BE000231A4619469F
:104460000120FEF769FB14E000231A4619460120DB
:10447000FEF762FB0DE000231A4619460120FEF705
:104480005BFB06E000231A4619460120FEF754FBA9
:1044900000BF00BF10BD10B501200F4908700023F8
:1044A0001A4619460C20FEF747FB02200A490870FD
:1044B00000231A4619460C20FEF73EFB10BD70473C
:1044C0007F0000207E0000207D00002000100140C1
:1044D00082000020700000207C00002010B52C48D5
:1044E000007800283CD12B4800780F2836D2DFE82E
:1044F00000F0080B0E1114171A1D202326292C2F4B
:10450000320000F049F82AE000F0ABF927E000F0B3
:10451000FEFC24E000F05EFD21E000F05CFD1EE00A
:1045200000F05AFD1BE000F058FD18E000F056FDC9
:1045300015E000F054FD12E000F052FD0FE000F035
:1045400050FD0CE000F04EFD09E000F04CFD06E0EF
:1045500000F04AFD03E000F048FD00E000BF15E078
:104560000B48007808280FD2DFE800F00E04050899
:104570000E090A0B00BF00F039FD06E005E000BFA0
:1045800000BF00F034FD00E000BF00BF10BD000020
:10459000810000208200002010B500200D49087025
:1045A00048708870C870FFF718F90BA201210846FF
:1045B000FEF7B1FF0CA201210320FEF7ACFF0EA213
:1045C00001210520FEF7A7FF0FA201210720FEF71A
:1045D000A2FF10BD82000020CBABBED9BAA3B2CEE1
:1045E000CBCDB9D8B0AE0000D3AAD1F8BAA3B2CE21
:1045F000B1A3BDA1BFB50000BCD2C8CBB7FECEF100
:10460000C8C8CFDF000000003132333435363738C8
:1046100039000000704770477047704710B5FFF7CA
:10462000DCF8E6A201210846FEF775FFE7A20121AA
:104630000320FEF770FFEAA201210520FEF76BFFC1
:10464000ECA201210720FEF766FF10BD10B5EE4871
:104650008078062813D2DFE800F0120306090C0F59
:10466000FFF7DCFF0BE0FFF7D8FF08E0FFF7D4FF10
:1046700005E0FFF7D0FF02E0FFF7CCFF00BF00BF6F
:1046800010BD704770477047704710B5FFF7A5F829
:10469000DEA201210846FEF73EFFE0A20121032031
:1046A000FEF739FFCEA201210520FEF734FFD1A28B
:1046B00001210720FEF72FFF10BD10B5D2488078EA
:1046C000062813D2DFE800F0120306090C0FFFF7EB
:1046D000DCFF0BE0FFF7D8FF08E0FFF7D4FF05E0B1
:1046E000FFF7D0FF02E0FFF7CCFF00BF00BF10BD17
:1046F00070477047704710B5FFF76FF8C2480079F0
:1047000000287AD1C0484079002876D1BE48807907
:10471000002872D1BC48C07805286DD2DFE800F0CF
:1047200003182D425700C2A201210846FEF7F3FEEE
:10473000C4A201210320FEF7EEFEC7A2012105203D
:10474000FEF7E9FEC9A201210720FEF7E4FE53E0CF
:10475000CBA201210846FEF7DEFECEA201210320F6
:10476000FEF7D9FED0A201210520FEF7D4FED3A288
:1047700001210720FEF7CFFE3EE0D5A20121084629
:10478000FEF7C9FED6A201210320FEF7C4FED9A27E
:1047900001210520FEF7BFFEC8A201210720FEF778
:1047A000BAFE29E0D7A201210846FEF7B4FEDAA23C
:1047B00001210320FEF7AFFEA2A201210520FEF792
:1047C000AAFEDAA201210720FEF7A5FE14E0DCA272
:1047D00001210846FEF79FFEDDA201210320FEF71E
:1047E0009AFEDFA201210520FEF795FEE1A201213C
:1047F0000720FEF790FE00BF00BF10BD10B5FEF70A
:10480000ECFFE0A201210846FEF785FE8DA2012102
:104810000320FEF780FE72A201210520FEF77BFE39
:1048200074A201210720FEF776FE10BD10B5764870
:104830008078062813D2DFE800F0120306090C0F77
:10484000FFF7DCFF0BE0FFF756FF08E0FFF752FF32
:1048500005E0FFF74EFF02E0FFF74AFF00BF00BF91
:1048600010BD10B568484078012804D0022805D052
:10487000032809D105E0FFF7D9FF05E0FFF71DFF89
:1048800002E0FFF7E3FE00BF00BF10BD70B580215E
:10489000C048FBF71CFF01205B49C871002332228E
:1048A00019461846FEF748F98021BA48FBF70DFF74
:1048B00000205549C871FFF7F4F905460621B548AF
:1048C000FBF705FF00231E2219461846FEF734F9B0
:1048D0000621B048FBF7F9FE2C46FFF7E2F9054642
:1048E0002C1B102C02DA012047494871502C02DDA4
:1048F0000120454988714448007928B942484079E7
:1049000010B94148807918B1A3480068FDF746FC0A
:1049100070BD10B5FFF7BAFF00BF3B488078022892
:1049200006D0032805D0042804D005283ED102E093
:1049300000BF00BF00BF25E0FFF7B3F90446B4F5A0
:10494000207F0CDA3048C07948B906219148FBF73E
:10495000BEFE00231A4602211846FEF7EDF8B4F514
:104960005C7F09DD06218B48FBF7AFFE00231A466A
:1049700003211846FEF7E0F800231E2219461846C8
:10498000FEF7DAF8204880780228D5D000BF1E480C
:1049900080780328FBD000BF1B4880780428FBD018
:1049A00000BF194880780528FBD000E000BF00BF99
:1049B000154800780128B0D010BD0000D0A1CDB7B7
:1049C000BAA3B2CEB7A2D6C633300000D2BBBDEF79
:1049D000BAA3B2CEB6E0D3DA3930D6BB00000000BD
:1049E000C6E4CBFBCDB7CAFDBAA3B2CEB7A2D6C63A
:1049F00000000000D4D9B0B4D4D9D1A1B3A4B0B4CC
:104A0000CDCBB3F60000000082000020B4F3CDB798
:104A1000BAA3B2CEB7A2D6C633300000D2BBBDEF28
:104A2000BAA3B2CEC9D9D3DA3430D6BB0000000065
:104A3000C6D5CDA8BAA3B2CEBFAACABCB7A2D6C6A5
:104A400000000000D2BBBDEFBAA3B2CE3430D6C155
:104A50003930D6BB000000002038D0A1CAB1BAF36B
:104A6000C7E5CFB4BAA3B2CE000000003638D0A15B
:104A7000CAB1BAF3B7A2D6C6BDE1CAF800000000B9
:104A8000C7EBC4FACFD6D4DAC7E5CFB4BAA3B2CE57
:104A900000000000B0B4D4DDCDA3BCFCBAF3B6CBAB
:104AA000B3F6B9F800000000C7E5CFB4BAF3B0D14F
:104AB000B2CEB9F8B7C5BBD800000000B0B4BBD6C1
:104AC000B8B4BCFCBDD3D7C5B7A2D6C600000000A1
:104AD000C4FAB0B4C1CBD4DDCDA3BCFC000000004F
:104AE000CFD6D4DABFC9D2D4C7E5CFB4BAA3B2CE39
:104AF00000000000C7EB31D0A1CAB1C4DAB7C5BB12
:104B0000D8000000BAA3B2CED2D1BEADC7E5CFB4B3
:104B1000CDEAB1CF00000000C6D5CDA8BAA3B2CE71
:104B2000BDD3D7C5B7A2D6C6000000003630D0A18D
:104B3000CAB1BAF3B7A2D6C6CDEAB3C90000000025
:104B4000C7E5CFB4BAA3B2CEB3ACCAB1000000007F
:104B5000C7EBC4FAB7C5BBD8BAA3B2CE00000000F9
:104B6000B0B4BBD6B8B4BCFCBCCCD0F8B7A2D6C6E7
:104B7000000000003132D0A1CAB1BAF3B9D8BBFAF3
:104B800000000000C6D5CDA8BAA3B2CEB7A2D6C643
:104B900033300000001001407000002010B5FEF717
:104BA0001CFEE5A201210846FEF7B5FCE2A20121A8
:104BB0000320FEF7B0FCE0A201210520FEF7ABFCCC
:104BC000DDA201210720FEF7A6FC10BD10B5FEF7FF
:104BD00004FED9A201210846FEF79DFCD6A20121C0
:104BE0000320FEF798FCD4A201210520FEF793FCD8
:104BF000D1A201210720FEF78EFC10BD10B5FEF7F3
:104C0000ECFDCDA201210846FEF785FCCAA20121D8
:104C10000320FEF780FCC8A201210520FEF77BFCE3
:104C2000C5A201210720FEF776FC10BD10B5FEF7E6
:104C3000D4FDC1A201210846FEF76DFCBEA20121F0
:104C40000320FEF768FCBCA201210520FEF763FCEF
:104C5000B9A201210720FEF75EFC10BD10B5FEF7DA
:104C6000BCFDB6A201210846FEF755FCB7A2012102
:104C70000320FEF750FCBAA201210520FEF74BFCF1
:104C8000BCA201210720FEF746FC10BD10B5BE48AE
:104C90008078062813D2DFE800F0120306090C0F13
:104CA000FFF7DCFF0BE0FFF7C1FF08E0FFF7A6FF0F
:104CB00005E0FFF78BFF02E0FFF770FF00BF00BFCA
:104CC00010BD10B5FEF789FD9BA201210846FEF735
:104CD00022FC99A201210320FEF71DFC96A20121CE
:104CE0000520FEF718FC94A201210720FEF713FC13
:104CF00010BD10B5FEF771FD8FA201210846FEF729
:104D00000AFC8DA201210320FEF705FC8AA20121E5
:104D10000520FEF700FC88A201210720FEF7FBFB1F
:104D200010BD10B5FEF759FD83A201210846FEF71C
:104D3000F2FB81A201210320FEF7EDFB7EA20121FF
:104D40000520FEF7E8FB7CA201210720FEF7E3FB2C
:104D500010BD10B5FEF741FD77A201210846FEF710
:104D6000DAFB75A201210320FEF7D5FB72A2012117
:104D70000520FEF7D0FB70A201210720FEF7CBFB38
:104D800010BD10B5FEF729FD80A201210846FEF7EF
:104D9000C2FB82A201210320FEF7BDFB70A201210C
:104DA0000520FEF7B8FB73A201210720FEF7B3FB35
:104DB00010BD10B574488078062813D2DFE800F0E3
:104DC000120306090C0FFFF7DCFF0BE0FFF7C1FF32
:104DD00008E0FFF7A6FF05E0FFF78BFF02E0FFF713
:104DE00070FF00BF00BF10BD10B5FEF7F6FC52A269
:104DF00001210846FEF78FFB4FA201210320FEF799
:104E00008AFB4DA201210520FEF785FB4AA2012164
:104E10000720FEF780FB10BD10B5FEF7DEFC46A2B2
:104E200001210846FEF777FB43A201210320FEF78C
:104E300072FB41A201210520FEF76DFB3EA201217C
:104E40000720FEF768FB10BD10B5FEF7C6FC3AA2BE
:104E500001210846FEF75FFB37A201210320FEF780
:104E60005AFB35A201210520FEF755FB32A2012194
:104E70000720FEF750FB10BD10B5FEF7AEFC43A2B5
:104E800001210846FEF747FB44A201210320FEF75B
:104E900042FB33A201210520FEF73DFB35A2012193
:104EA0000720FEF738FB10BD10B5FEF796FC40A2B8
:104EB00001210846FEF72FFB41A201210320FEF746
:104EC0002AFB27A201210520FEF725FB29A20121AB
:104ED0000720FEF720FB10BD10B52B488078062870
:104EE00013D2DFE800F0120306090C0FFFF7DCFF16
:104EF0000BE0FFF7C1FF08E0FFF7A6FF05E0FFF7B3
:104F00008BFF02E0FFF770FF00BF00BF10BD10B5C0
:104F10001D484078012804D0022805D0032809D173
:104F200005E0FFF7D9FF05E0FFF743FF02E0FFF7D9
:104F3000ADFE00BF00BF10BD00000000D0A1CDB786
:104F4000BAA3B2CEB7A2D6C633300000D2BBBDEFF3
:104F5000BAA3B2CEB6E0D3DA3930D6BB0000000037
:104F6000C6E4CBFBCDB7CAFDBAA3B2CEB7A2D6C6B4
:104F700000000000D4D9B0B4D4D9D1A1B3A4B0B446
:104F8000CDCBB3F60000000082000020B4F3CDB713
:104F9000BAA3B2CEB7A2D6C633300000D2BBBDEFA3
:104FA000BAA3B2CEC9D9D3DA3430D6BB00000000E0
:104FB000C6D5CDA8BAA3B2CEB7A2D6C633300000AC
:104FC000D2BBBDEFBAA3B2CE3430D6C13930D6BBD6
:104FD0000000000070477047704770477047704787
:104FE0007047704770477047704770477047704709
:104FF000064C074D06E0E06840F0010394E8070026
:1050000098471034AC42F6D3FBF796F89451000859
:10501000B451000802E008C8121F08C1002AFAD1E2
:1050200070477047002001E001C1121F002AFBD128
:1050300070470000010002000100030001000200AF
:105040000100040001000200010003000100020051
:105050000100050001000200010003000100020040
:105060000100040001000200010003000100020031
:10507000010006000100020001000300010002001F
:105080000100040001000200010003000100020011
:105090000100050001000200010003000100020000
:1050A00001000400010002000100030001000200F1
:1050B00001000700010002000100030001000200DE
:1050C00001000400010002000100030001000200D1
:1050D00001000500010002000100030001000200C0
:1050E00001000400010002000100030001000200B1
:1050F000010006000100020001000300010002009F
:105100000100040001000200010003000100020090
:10511000010005000100020001000300010002007F
:105120000100040001000200010003000100020070
:105130000100000001000000785634120A0010003F
:1051400001002000400100000000000000000500F8
:1051500010001F000000000005001000000000000B
:10516000000004000000040000000400010004002E
:105170000100010001008000010012001000010088
:1051800080000100010020005000E80301001E0122
:10519000960B0000B4510008000000208C000000B5
:1051A00014500008405200088C0000202413000016
:1051B0002450000800A24A04000000000000000083
:1051C00001020304060708090000000001020304AD
:1051D0000102030406070809020406080000000093
:1051E00000000000000000000000000000000000BF
:1051F00000000000000000000000000000000000AF
:10520000000000000000000000000000000000009E
:10521000000000000000000000000000000000008E
:10522000000000000000000000000000000000007E
:10523000000000000000000000000000000000006E
:0400000508000131BD
:00000001FF
