:020000040800F2
:1000000000040020CF0100085D0A0008CD060008AA
:10001000590A00085B0300082126000800000000C0
:10002000000000000000000000000000AB200008FD
:10003000190500080000000057020008D921000837
:10004000EF010008EF010008EF010008EF010008D0
:10005000EF010008EF010008EF010008EF010008C0
:10006000EF010008EF010008EF010008EF010008B0
:10007000EF010008EF010008B1030008EF010008DC
:10008000EF010008EF010008EF010008EF01000890
:10009000EF010008EF010008EF010008EF01000880
:1000A000EF010008EF010008EF010008EF01000870
:1000B000EF010008EF010008EF010008EF01000860
:1000C000EF010008EF010008EF010008EF01000850
:1000D000EF01000851240008EF010008EF010008BB
:1000E000EF010008EF010008EF010008EF01000830
:1000F000EF010008EF010008EF010008EF01000820
:10010000EF010008EF010008EF010008EF0100080F
:10011000EF010008EF010008EF010008EF010008FF
:10012000EF010008EF010008EF010008EF010008EF
:1001300000F002F800F03AF80AA090E8000C8244BF
:100140008344AAF10107DA4501D100F02FF8AFF29C
:10015000090EBAE80F0013F0010F18BFFB1A43F0A5
:1001600001031847AC260000CC260000103A24BF3B
:1001700078C878C1FAD8520724BF30C830C144BF0C
:1001800004680C607047000000230024002500264E
:10019000103A28BF78C1FBD8520728BF30C148BFEA
:1001A0000B6070471FB51FBD10B510BD00F087F87C
:1001B0001146FFF7F7FF02F067FA00F0A5F803B465
:1001C000FFF7F2FF03BC00F0ADF8000070470B48EA
:1001D00080470B4981F308880A480047FEE7FEE79D
:1001E000FEE7FEE7FEE7FEE7FEE7FEE7FEE7FEE7E7
:1001F00005480649044A064B70470000CD01000837
:1002000018140020310100081812002018140020D2
:1002100018120020EFF3108072B6704780F3108838
:1002200070471D484FF0FF010170002080F30988DE
:100230001A48012101701A484FF08051016062B6DE
:10024000FEE717484FF080510160704714484FF0A7
:1002500080510160704772B6EFF3098028B12038F1
:1002600080E8F00F0F490968086000B50E48804724
:100270005DF804EB0D480E490A78027009480D49F3
:100280000A680260106890E8F00F203080F3098857
:100290004EF0040E62B6704722ED00E01E00002012
:1002A00004ED00E0240000201913000817000020CE
:1002B000180000202C0000207047704770477546DA
:1002C00000F02CF8AE4605006946534620F00700C2
:1002D000854618B020B5FFF78BFFBDE820404FF0F2
:1002E00000064FF000074FF000084FF0000B21F020
:1002F0000701AC46ACE8C009ACE8C009ACE8C009ED
:10030000ACE8C0098D46704710B50446AFF30080D5
:100310002046BDE81040FFF752BF0000004870477C
:10032000B411002001491820ABBEFEE726000200F0
:10033000704710B501F058FF01F086FF00F0E8F8B3
:1003400002F042F800F066F800F02CFB00F0C0F973
:1003500000F006F801F08CFC10BD00BFFEE70000C5
:1003600008B50121082001F009FC6320ADF8000068
:1003700003208DF8020010208DF8030069460B4819
:1003800000F0D1F80121094800F05AF9022107488C
:1003900000F056F92021054800F052F940210348A9
:1003A00000F04CF9002000F005FB08BD000C0140F6
:1003B00010B500F04BFC4FF4005000F05FF801283E
:1003C00008D100228021054802F04FF84FF4005078
:1003D00000F006F800F04CFC10BD000000380140B1
:1003E00000F0805111B10349086001E00249486002
:1003F00070470000040402400000024021B102687E
:1004000042F00102026004E002684FF6FE731A40F7
:100410000260704700B58BB00121084601F09EFBD9
:1004200000F01DFB1248009012480190002002903D
:1004300080200390002004908020059000200690EA
:10044000079020200890C001099000200A9069467A
:10045000094800F029F801210748FFF7CFFF0122E2
:1004600040210348001F02F000F80BB000BD00005F
:1004700004380140B40B002058000240014600201F
:10048000002201F0805313B1054B1A6801E0054BBF
:100490001A6802EA01030BB1012000E00020704756
:1004A000000402400000024010B50022026847F636
:1004B000F0739A430C6A8B6823430C6923434C699D
:1004C00023438C692343CC6923434C6A23438C6ABE
:1004D00023431A430260CB6843600B6883604B6818
:1004E000C36010BD08B50121042001F047FB4FF4A3
:1004F0008050ADF8000004208DF8030003208DF833
:1005000002006946014800F00EF808BD00080140ED
:1005100010B5FFF7E7FF10BD704770477047704791
:100520007047704770472DE9F041024600250026CC
:10053000002000230024002791F803C00CF00F05D1
:1005400091F803C00CF0100CBCF1000F03D091F82F
:1005500002C04CEA050591F800C0BCF1000F31D093
:10056000146800202BE04FF0010C0CFA00F3B1F8F6
:1005700000C00CEA03069E4220D183004FF00F0C0E
:100580000CFA03F7BC4305FA03FC4CEA040491F8A7
:1005900003C0BCF1280F06D14FF0010C0CFA00FC8F
:1005A000C2F814C00AE091F803C0BCF1480F05D1AD
:1005B0004FF0010C0CFA00FCC2F810C0401C0828D7
:1005C000D1D31460B1F800C0BCF1FF0F34DD546822
:1005D00000202EE000F1080C4FF0010808FA0CF39F
:1005E000B1F800C00CEA03069E4221D183004FF00F
:1005F0000F0C0CFA03F7BC4305FA03FC4CEA0404A5
:1006000091F803C0BCF1280F05D100F1080C08FADD
:100610000CF8C2F8148091F803C0BCF1480F07D160
:1006200000F1080C4FF0010808FA0CF8C2F810802D
:10063000401C0828CED35460BDE8F081416170476A
:100640000161704710B5204800780F2836D2DFE8E6
:1006500000F0080B0E1114171A1D202326292C2F29
:10066000320001F0DFFF2AE001F077FA27E001F025
:10067000AAFE24E001F0A4FE21E0FFF751FF1EE0F6
:10068000FFF74DFF1BE001F0A6FD18E001F0A2FD11
:1006900015E0FFF742FF12E000F036FA0FE001F03C
:1006A0008DFE0CE0FFF73AFF09E001F08BFE06E05B
:1006B00001F085FE03E0FFF734FF00E000BF00BF5C
:1006C00000F032F810BD00008C11002000BFFEE7E2
:1006D00008B50121082001F051FA4FF47060ADF81F
:1006E000000010208DF8030003208DF802006946F9
:1006F0000B48FFF718FF4FF47040ADF8000048209A
:100700008DF8030003208DF8020069460448FFF7C6
:100710000AFF4FF470610248FFF790FF08BD000028
:10072000000C01407047000010B51D4800780628F5
:1007300032D2DFE800F03103131B232B00240AE040
:100740001749496851F8242015494B78E0B2002137
:1007500000F062F8641C042CF2DB1EE0104C63789D
:10076000A2686179207900F057F816E00C4C6378A4
:10077000A2686179207900F0EDF80EE0084C63780A
:10078000A2686179207900F0B1F806E0044A517856
:10079000506801F0ADFA00E000BF00BF10BD0000DE
:1007A000A8110020F0B589B006460C4615461F4634
:1007B000202201A9304601F049FC3B4601AA294606
:1007C000204601F0AEFA09B0F0BD2DE9FC41064625
:1007D0000C4615461F4605226946304601F036FC98
:1007E0003B466A462946204601F09BFABDE8FC815B
:1007F0002DE9FF4106460C4615461F461022694664
:10080000304601F023FC3B466A462946204601F06B
:10081000A6FABDE8FF8100002DE9F04780460F46AB
:100820001546994600245AE0285DB0281DDB285D56
:10083000F7281ADC601C285CA12816DB285DB0387C
:100840005E2100FB01F6601C285C00F2AD2006442E
:1008500076014B463A4641463046FFF7A3FFA01CBF
:10086000C4B207F11000C7B239E0285DA1281CDB33
:10087000285DA32819DC601C285CA12815DB285DF5
:10088000A1385E2100FB01F6601C285CA1380644FB
:1008900076014B463A4641463046FFF783FFA01C9F
:1008A000C4B207F11000C7B219E0285D202814DB9C
:1008B000285D7E2811DC285DA0F1200636010A485B
:1008C00006444B463A4641463046FFF791FF601CCE
:1008D000C4B207F10800C7B201E0601CC4B2285DD1
:1008E0000028A1DCBDE8F08780CF03002DE9F047A8
:1008F000074688461446994600260025642C0CD9E4
:100900004FF47A70B4FBF0F100FB11446420B4FBA7
:10091000F0F030307055681CC5B20A2C0BD9642039
:10092000B4FBF0F100FB11440A20B4FBF0F03030CE
:100930007055681CC5B20A20B4FBF0F100FB1140F1
:10094000303070554B46324641463846FFF764FF1B
:10095000BDE8F0872DE9F04780460E4615469946DA
:10096000002418E0285D202813DB285D7E2810DC99
:10097000285DA0F12007FF00094807444B46324696
:1009800041463846FFF721FF601CC4B2B01DC6B215
:1009900001E0601CC4B2285D0028E3DCBDE8F087FC
:1009A000C0BF030010B501F0F9F901F0F3FA01F04E
:1009B00083F910BD70B50546002401212548FFF7D5
:1009C0003DFE02212348FFF739FE40212148FFF771
:1009D00037FE0DB1102D18DD002413E001211D4854
:1009E000FFF72CFE02211B48FFF72AFE0A230022F4
:1009F0001146104600F0CAFC02211648FFF71EFE01
:100A0000601CC4B2102CE9DB1FE000241BE0681E50
:100A1000A04204D101210F48FFF712FE03E001219B
:100A20000C48FFF70BFE02210A48FFF709FE0A23D4
:100A300000221146104600F0A9FC02210548FFF7EC
:100A4000FDFD601CC4B2102CE1DB40210148FFF722
:100A5000F5FD70BD000C014000BFFEE7704708B512
:100A60004FF4C06000F046F825208DF8000001200A
:100A70008DF801008DF802008DF80300684600F043
:100A800001F808BD70B5002100230F22C47804B31B
:100A9000154C246804F4E064C4F5E064210AC1F153
:100AA0000403CA40447804FA03F1847814402143D3
:100AB00009010E4C0678A155047804F01F050124A5
:100AC000AC4005786D11AD0005F1E025C5F8004199
:100AD00009E0047804F01F050124AC40044D0678B9
:100AE000761145F8264070BD0CED00E000E400E012
:100AF00080E100E002490143024A116070470000B2
:100B00000000FA050CED00E0704700001748184897
:100B10001848194819481A481A481B481B481C48C5
:100B20001C481D481D481E481E481F481F48204895
:100B30002048214821482248224823482348244865
:100B40002448254825482648264827482748284835
:100B50002848294829482A482A482B482B482C4805
:100B60002C482D482D4800BF70470000B0260008D3
:100B7000B4260008B8260008BA260008BC260008DB
:100B8000BE260008C0260008C2260008C4260008A9
:100B9000C6260008C8260008CA260008CC26000879
:100BA000CE260008D0260008D2260008D426000849
:100BB000D6260008D8260008DA260008DC26000819
:100BC000DE260008E0260008E2260008E4260008E9
:100BD000E6260008E8260008EA260008EC260008B9
:100BE000EE260008F0260008F2260008F426000889
:100BF000F6260008F8260008FA260008FC26000859
:100C0000FE26000800270008022700080427000825
:100C100006270008082700080A2700080C270008F4
:100C200010B500F011F800F047FD00F06FFD00F086
:100C300091FD00F019FD00F0C1FD00F0E7FD00F0AE
:100C400004F8FFF763FF10BD70477047064800784F
:100C5000012808D105480078FF2804D2034800780D
:100C6000401C0249087070471E000020150000203B
:100C700010B500241A480078012830D1FFF7CAFACD
:100C8000044618480078002804DD16480078401E05
:100C90001449087013480078F0B913480078D8B99F
:100CA00000F020FE1148007811490978884213D0DD
:100CB00010480E49097850F821000F49086008468D
:100CC0000068C06A401C0968C8620C480068401C83
:100CD0000A490860FFF7BAFA2046FFF79FFA10BDED
:100CE0001E00002015000020160000201800002023
:100CF00017000020940500202C0000200000002098
:100D000070B50546002612480078002801DD002055
:100D100070BDFFF77FFA06460E480468006820B1F0
:100D20000C48006840680B4908603046FFF776FAC7
:100D30005CB1032020702581002060603F20E073BB
:100D400000212174204600F081FC2046E0E70000ED
:100D500015000020040000202DE9F04105460E4654
:100D6000144600270CB9BDE8F08115B904202070A5
:100D7000F9E72878032802D001202070F3E73248F1
:100D80000078002802DD02202070ECE72F48007870
:100D9000002802DD0D202070E5E7FFF73BFA07464B
:100DA0002889002808DD2889401E28813846FFF759
:100DB00035FA00202070D6E72548006890F8220018
:100DC00040F001002249096881F8220000202049F2
:100DD000096881F823001E4800680684284600F050
:100DE000F7FB3846FFF71AFA00F042FDFFF712FA58
:100DF00007461748006890F8230020B1012809D061
:100E0000022806D102E0002020700BE00E202070A6
:100E100008E000BF29460E48006800F0C3FB0A2026
:100E2000207000BF00BF00200949096881F8220036
:100E30000749096881F8230005490968C8613846EF
:100E4000FFF7ECF900BF8EE7150000201600002028
:100E50002400002070B5044600250CB9042070BDA4
:100E60002078032801D00120F9E7FFF7D3F90546E0
:100E7000A07A60B1002301221946204600F050FB01
:100E80002846FFF7CBF900F0F3FC0020E7E72089C4
:100E90004FF6FF71884207D22089401C20812846E6
:100EA000FFF7BCF90020DAE72846FFF7B7F9322050
:100EB000D5E7000010B50B48007890B900F012FD9E
:100EC000094800780949087009480749097850F825
:100ED0002100084908600846006807490860FFF7D4
:100EE000A0F910BD1E0000201800002017000020EF
:100EF000940500202C0000202400002070470000F2
:100F00002DE9FE4F06460F4690461C464FF000095D
:100F10001F2C02DD2A20BDE8FE8FFFF77BF98146FA
:100F20001F480078002804DD4846FFF777F93C2089
:100F3000F1E71C4850F8240060BB0120194941F832
:100F400024004846FFF76AF90023424639463046F6
:100F500000F036F9824600200090019003460246D8
:100F600051460290204600F0EBFC054635B90E488C
:100F7000007801280CD100F07BFC09E0FFF74AF96A
:100F800081460020074941F824004846FFF746F90A
:100F90002846C0E74846FFF741F92820BBE7000094
:100FA00015000020940500201E0000202DE9F04FC0
:100FB00085B081468A4693461C46DDE90F78129D2E
:100FC000002003901F2C03DD2A2005B0BDE8F08F20
:100FD000FFF720F9039022480078002804DD0398E9
:100FE000FFF71CF93C20F0E71E4850F8240088BBAE
:100FF00001201C4941F824000398FFF70FF92A4605
:101000004146384600F09CFD2B465A46514648461C
:1010100000F0D6F804901198CDE9008002953A4688
:1010200020460E9B049900F08BFC064636B90E480C
:10103000007801280CD100F01BFC09E0FFF7EAF86A
:1010400003900020074941F824000398FFF7E6F8D1
:101050003046BAE7FFE70398FFF7E0F82820B4E747
:1010600015000020940500201E00002070477047E6
:101070002DE9F04705460F4614464FF000090CB91C
:10108000BDE8F0871F2D04DDFF2D02D02A2020703F
:10109000F6E717B90C202070F2E71D480078002809
:1010A00002DD12202070EBE7FFF7B4F88146FF2D38
:1010B00003D11848006890F82450174850F825606C
:1010C0002EB94846FFF7AAF843202070D8E7012E32
:1010D00005D14846FFF7A2F843202070D0E73846F4
:1010E00000F024FC8046B8F10F0F05DD4846FFF7FD
:1010F00095F841202070C3E7394606F1400000F022
:1011000007FC4846FFF78AF80020207000BFB7E7C9
:1011100015000020240000209405002070470000E6
:101120002DE9F04706460C464FF0000A1F2E04DD5D
:10113000FF2E02D02A20BDE8F0870CB90920FAE77B
:10114000002020606060FFF765F88246FF2E03D123
:101150001948006890F82460184850F8265025B9BE
:101160005046FFF75BF84320E5E7012D04D15046D8
:10117000FFF754F84320DEE7287C00F0010020B997
:101180005046FFF74BF84520D5E70027D5F80C90DF
:10119000D5F808805046FFF741F800E07F1C58F86A
:1011A000041B0029FAD0B8002060A9EB07008000DA
:1011B00060600020BFE700002400002094050020AC
:1011C00070B5044610464FF080750560051F28462F
:1011D0002C606FF00106051F28462E604FF0123676
:1011E000051F28462E604FF00336051F28462E6047
:1011F0004FF00236051F28462E607610051F284640
:101200002E60051F284629604FF01136051F28461D
:101210002E604FF01036051F28462E604FF009361D
:10122000051F28462E604FF00836051F28462E6001
:101230004FF00736051F28462E604FF00636051F73
:1012400028462E604FF00536051F28462E604FF0C9
:101250000436051F28462E6070BD00002DE9F041C0
:1012600005464FF000081F2D02D14720BDE8F08150
:101270001F2D03DBFF2D01D02A20F7E7FEF7CAFF61
:101280008046FF2D05D12048006890F824500126A3
:1012900008E01D48006890F82400A84201D101260A
:1012A00000E00026194850F8254024B94046FEF7D2
:1012B000B5FF4820DAE7012C04D14046FEF7AEFF27
:1012C0004320D3E794F826701148C05D94F82710A6
:1012D00088430F49C8550846C05D30B994F82810B6
:1012E0000C48007888430B49087094F8220040F0BD
:1012F000080084F822004046FEF790FF012E01D13D
:1013000000F0B6FA0020B1E7240000209405002088
:101310001A000020190000207047000070B5054633
:10132000002616480078002800DD70BD002D23DD62
:10133000FEF770FF06461248006890F826401148F4
:10134000005D0F49096891F8271088430D49085539
:101350000846005D40B90A48006890F828100A481D
:1013600000788843084908700548006805843046BD
:10137000FEF754FF00F07CFA00BFD6E7150000200E
:10138000240000201A000020190000202DE9F04759
:1013900080460D4616461C4624480078002802DD8B
:1013A0005520BDE8F087B8F1000F04D11DB916B97A
:1013B0000CB95420F5E73B2D01DD5120F1E73B2E20
:1013C00001DD5220EDE7B4F57A7F01DB5320E8E739
:1013D0004FF47A7060434FF47A71B0FBF1F14FF43F
:1013E000616008FB00F0C5EB051200EB82003044A1
:1013F00000EB4002C2EBC01001EBC0074FEA1749F7
:10140000BFB23846FFF78AFF0BE04FF40040FFF70A
:1014100085FF4FF40040FFF781FFA9F101001FFA9B
:1014200080F9B9F1000FF0DC0020BAE715000020C8
:1014300070B5002600F072F8FEF7ECFE0646314863
:101440000068401C2F4908603046FEF7E7FE2E4832
:101450000078012853D12D48007820B1012804D00C
:10146000022809D103E001250BE0002509E0012550
:1014700001202649087004E0012500202349087056
:1014800000BF00BF05B970BD2148046833E0FEF716
:10149000C1FE0646208C50B3208C401E80B22084B2
:1014A00028BB94F8220000F0370040B114F8220F56
:1014B00020F03700207001206070223C02E0002004
:1014C00084F8230094F8220000F0080078B926344C
:1014D000A0781049097808430E49087020780E4911
:1014E000085C6178084314F826190B4A5054646963
:1014F0003046FEF793FE94F824001F28C7D100BFA2
:10150000C1E70000380000201E0000203400002049
:1015100030000020190000201A0000207047000051
:101520002DE9F04F05460F4690469946A87A19498D
:101530000E5C05F10B00805D11F800B00BEBC600EE
:1015400000F0FF0A144850F82A40002024F8200F29
:1015500000BFA07820EA0800A07084F80390A0786B
:10156000203C00F0080068B994F828000B4909787D
:1015700008430A4908700A48805D94F82710084318
:10158000074988552946204600F00CF85046BDE82A
:10159000F08F00000E27000894050020190000209D
:1015A0001A00002010B590F8262001F10B039B5C77
:1015B00090F82740A34301F10B04A35423469B5CFE
:1015C00023B98B7A90F82840A3438B7210BD00009A
:1015D00010B51B4A1268D061194A126892F8263079
:1015E00000F10B02D25C164B1B6893F827301A43AC
:1015F000134B1B6893F8264000F10B031A55827AAF
:101600000F4B1B6893F828301A4382720C4A1268F9
:1016100092F826100B4A525C094B1B6893F827304E
:101620009A43084B5A541A46525C42B9044A12680B
:1016300092F82830044A12789A43034B1A7010BD6E
:10164000240000201A0000201900002000238372CB
:1016500000F10B01002204E0002301F8013B531CC0
:10166000DAB2042AF8DB704730B54FF4A0711048A5
:1016700000F0F4F80E4B03F1200500240AE00020EE
:1016800018705D603F20D873002119742033203515
:10169000601C84B2092CF2DB0020187058603F20D7
:1016A000D8730021197402480249086030BD000057
:1016B000540000200400002000200A4908600A4964
:1016C00008700A4908700A4908700A4908700A49EE
:1016D00008600A4908600A4908600A4908600A491E
:1016E0000870704738000020150000201600002008
:1016F0001F0000201E00002000000020200000200D
:10170000100000200C0000201400002000220B4BD1
:101710001A700B49002004E0002201F8012B421C42
:10172000D0B20428F8DB0022064B1A70064B1A7060
:10173000064B1A60064B1A60704700001900002023
:101740001A00002017000020180000202C000020A4
:101750002400002030B54FF4B461144800F07EF846
:101760008021134800F07AF8104B03F15005002453
:101770000AE05D613F2083F8400000214120C15410
:1017800050335035601CC4B2112CF2D30020586184
:101790003F2083F8400000214120C154002005492A
:1017A000086002480449086030BD000014060020AB
:1017B00094050020300000202800002000B587B0EC
:1017C0000320002180220A4BCDE90132CDE903102C
:1017D0004FF6FF701F23074A00900748FFF7E6FB0C
:1017E00006AA06A11F20FFF743FC07B000BD0000BA
:1017F0009403002090050020591A000875432F4FCC
:10180000532D49492049646C6500000000B587B03C
:101810000320002180220A4BCDE90132CDE90310DB
:101820004FF6FE701E23074A00900748FFF7BEFBE5
:1018300006AA06A11E20FFF71BFC07B000BD000092
:1018400094010020900300207D1A000875432F4F5B
:10185000532D4949205374617400000004E00022B4
:1018600000F8012B4A1E91B20029F8DC70470000F5
:1018700010B50024FEF7CEFC044613480078F0B9FA
:1018800012480078D8B900F02DF8114800781149B5
:101890000978884213D010480D49097850F8210082
:1018A0000E49086008460068C06A401C0968C862A2
:1018B0000B480068401C0A490860FEF7C2FC20463D
:1018C000FEF7ACFC10BD0000150000201600002043
:1018D0001800002017000020940500202C00002094
:1018E000000000200649074A1278885C0649095C16
:1018F000034A515C01EBC001044A117070470000BB
:101900000E270008190000201A00002018000020EF
:101910000246002005E011F8013B02F8013B431CA0
:10192000D8B20B78002BF6D1137070470146002017
:1019300002E0491C421CD0B20A78002AF9D1704753
:101940002DE9F84F05460E4617469846DDE90BABE4
:10195000DDF8289000200090FEF75CFC00903848ED
:101960000468002C67D054F8140F354908600098BB
:10197000FEF754FC44F8146C25740020A073E07347
:10198000A08144F810AC44F8089C44F80C7C24F87E
:1019900004BC24F8028C6075E810A07405F0070000
:1019A0006074A17C012088402075617C0120884002
:1019B000E0740020A060A0612062E0616062A0622B
:1019C0003F2084F82C00143C002141200155204682
:1019D000FFF794FA2046FFF749FBFEF71BFC009047
:1019E000184840F825401848006860610020A06150
:1019F0001548006810B114480068846112480460FA
:101A00002634A078114909780843104908702078D5
:101A10000F49085C6178084314F826190C4A5054A1
:101A20000C480078401C0B4908700098FEF7F6FB44
:101A30000020BDE8F88F0098FEF7F0FB4220F8E7A1
:101A4000280000209405002030000020190000200C
:101A50001A0000201F000020002400BFFEF7DAFB60
:101A6000044605480068401C034908602046FEF70C
:101A7000D5FBFFF7FCFAF1E720000020002402E08C
:101A8000C820FFF74BFC1A4800780028F8D0194806
:101A900000686421B0FBF1F0164908600846006850
:101AA00028B9002014490870FF20FFF7D7FB00BFBA
:101AB000FEF7B0FB04461148006811490860002099
:101AC0000E4908602046FEF7A9FB0D480068094949
:101AD0000968B0FBF1F0C0F1640007490870FFF736
:101AE0001DFB00F00FF86420FFF718FCE0E7000092
:101AF000140000200C00002008000020200000201E
:101B0000100000207CB5002514E069462846FFF748
:101B100007FB064666B9094850F8254044B1012C38
:101B200006D0D4E9020100EB8100A0630198E063D4
:101B3000681CC5B21F2DE8DD7CBD000094050020A7
:101B400002F0010343B102F002032BB102E0491E8F
:101B5000002308C00029FAD17047704729B1064A0E
:101B600052690243044B5A6104E0034A52698243BA
:101B7000014B5A61704700000010024029B1064A2B
:101B800092690243044B9A6104E0034A92698243DA
:101B9000014B9A61704700000010024030B50021EF
:101BA0000022002400232D4D6D6805F00C0121B1A9
:101BB000042905D0082923D105E0294D056022E03C
:101BC000274D05601FE0254D6D6805F47012234D0B
:101BD0006D6805F48034022505EB92421CB9214D55
:101BE000554305600BE01D4D6D6805F400351DB1D2
:101BF0001C4D5543056002E0194D5543056002E058
:101C0000174D056000BF00BF144D6D6805F0F00171
:101C10000909154D6B5C0568DD4045600F4D6D6829
:101C200005F4E061090A104D6B5C4568DD40856094
:101C30000A4D6D6805F46051C90A0B4D6B5C45682F
:101C4000DD40C560054D6D6805F44041890B074DC9
:101C50006B5CC568B5FBF3F5056130BD0010024053
:101C600000127A0000093D003C0000204C000020DA
:101C700008B501211020FFF781FF40F28670ADF812
:101C8000000003208DF8020010208DF80300694643
:101C90000848FEF748FC80210648FEF7D1FC4FF4C7
:101CA00080710448FEF7CCFC06210248FEF7C8FC10
:101CB00008BD00000010014070B5002415E004F1DB
:101CC000B00000F0B1F8102000F0AEF8002000F0F5
:101CD000ABF8002505E00121002000F0D5F8681CD4
:101CE000C5B2842DF7DB601CC4B2092CE7DB70BDE4
:101CF0002DE9F04104460F4600250EE00121681C45
:101D000000F07EF8002605E02078394600F0BCF8A7
:101D1000641C761C802EF7D36D1C082DEED3BDE815
:101D2000F0812DE9F0470646894614461F460025F6
:101D300011E07019494600F063F84FF0000806E022
:101D40002078394600F0A0F8641C08F10108B8F1C9
:101D5000100FF5D36D1C022DEBD3BDE8F0872DE9F4
:101D6000F0470646894614461F46002511E07019C3
:101D7000494600F045F84FF0000806E02078394663
:101D800000F082F8641C08F10108B8F1080FF5D3DF
:101D90006D1C022DEBD3BDE8F087000010B500F0FC
:101DA00085F908211548FEF749FC08211348FEF77C
:101DB00047FCE22000F038F82C2000F035F82E2007
:101DC00000F032F82F2000F02FF8232000F02CF83C
:101DD000812000F029F8302000F026F8A22000F041
:101DE00023F8C82000F020F8A02000F01DF84020C3
:101DF00000F01AF8AF2000F017F810BD00080140FD
:101E000070B505460C46641E05F1AF0000F00CF8F5
:101E1000C4F3031101F1100000F006F804F00F0004
:101E200000F002F870BD000070B504464FF4006188
:101E30001448FEF703FC04211248FEF7FFFB0025BF
:101E400017E002210F48FEF7F9FB04F0800020B1F3
:101E500001210C48FEF7F4FB03E001210948FEF7DD
:101E6000EDFB02210748FEF7EBFB60000446681C0F
:101E7000C5B2082DE5DB4FF400610248FEF7E0FB38
:101E800070BD00000008014070B504460E4606B95A
:101E9000E4434FF400611448FEF7D0FB04211248DC
:101EA000FEF7CEFB002516E002210F48FEF7C6FB29
:101EB00004F0800020B101210B48FEF7C1FB03E0D4
:101EC00001210948FEF7BAFB02210748FEF7B8FBDB
:101ED0006400681CC5B2082DE6DB4FF400610248BF
:101EE000FEF7AEFB70BD00000008014021B1028882
:101EF00042F04002028004E002884FF6BF731A40AD
:101F0000028070470246002013890B400BB101206C
:101F100000E0002070470146888970478181704742
:101F200010B50022028802F441520B884C882343EA
:101F30008C882343CC8823430C8923434C89234337
:101F40008C892343CC8923431A430280838B4FF22D
:101F5000FF74234083830B8A038210BD10B50446AF
:101F600000BF02210A48FFF7CDFF0028F9D0214623
:101F70000748FFF7D3FF00BF01210548FFF7C2FF65
:101F80000028F9D00248FFF7C6FFC0B210BD00001C
:101F90000030014000B587B001212420FFF7EEFD9D
:101FA00001210803FFF7EAFD2020ADF8040003201B
:101FB0008DF8060018208DF8070001A92148FEF7CA
:101FC000B2FA4020ADF8040001A91E48FEF7ABFAB2
:101FD0008020ADF8040001A91A48FEF7A4FA1020E9
:101FE000ADF804008DF8070001A91648FEF79BFA2A
:101FF00010211448FEF724FB0020ADF808004FF430
:102000008270ADF80A000020ADF80C000220ADF897
:102010000E000120ADF810004002ADF812000820BB
:10202000ADF814000020ADF816000720ADF8180038
:1020300002A90548FFF774FF01210348FFF756FF87
:1020400007B000BD00080140003001402DE9F0411B
:1020500007460D461646002410210A48FEF7EEFA00
:10206000384600F011F800BF04E0FF20FFF776FFCC
:102070002855641CB442F8DB10210248FEF7E0FA50
:10208000BDE8F0810008014010B504460320FFF7C9
:1020900065FFC4F30740FFF761FFC4F30720FFF7B4
:1020A0005DFFE0B2FFF75AFF10BD704708B5012190
:1020B0000420FFF763FD40F60F00ADF80000032099
:1020C0008DF8020010208DF8030069460148FEF7E4
:1020D0002AFA08BD0008014010B500F001F810BD53
:1020E0000CB50020019000903348006840F4803027
:1020F0003149086000BF3048006800F400300090AB
:102100000198401C0190009818B90198B0F5A06F93
:10211000F1D12948006800F4003010B1012000908E
:1021200001E0002000900098012843D12348006876
:1021300040F01000214908600846006820F00300C4
:1021400008600846006840F0020008601A484068CD
:10215000194948600846406848600846406840F4AD
:10216000806048600846406820F47C10486008465B
:10217000406840F4E81048600846006840F080700D
:10218000086000BF0C48006800F000700028F9D01B
:102190000948406820F00300074948600846406845
:1021A00040F00200486000BF0348406800F00C00A7
:1021B0000828F9D10CBD00000010024000200240A8
:1021C00010B5FEF7AFF9C823002211461046FFF7FD
:1021D000DDF810BD7047704710B5FEF737FDFFF70B
:1021E00027F9FEF745FD10BD10B51348006840F013
:1021F00001001149086008464068104908400E492E
:102200004860084600680E4908400B4908600846C7
:10221000006820F4802008600846406820F4FE0032
:1022200048604FF41F008860FFF756FF4FF00060D2
:102230000449086010BD0000001002400000FFF8D3
:10224000FFFFF6FE08ED00E030B51249B1F1807FE6
:1022500000D31DE021F07F40401E4FF0E02250618E
:1022600050170F22002807DA13071D0E0A4B00F043
:102270000F04241F1D5503E013071C0E074B1C54AD
:1022800000BF00204FF0E02290610720106100BFE6
:1022900030BD00004019010018ED00E000E400E04E
:1022A00001E0FEF73FFAFCE708B507E004496A469B
:1022B000C8680021FEF750FDFEF7C4F9F6E70000FC
:1022C0007411002000F020F801E0FFF779FFFCE72F
:1022D00008B507E004496A4688680021FEF73CFD1E
:1022E00000F06FF8F6E700007411002008B507E071
:1022F00004496A4608690021FEF72EFD00F050F9F6
:10230000F6E700007411002010B50623204A0021D2
:102310002048FEF7F5FD08231F4A00211F48FEF75D
:10232000EFFD0A231E4A00211E48FEF7E9FD0E2399
:102330001D4A00211D48FEF7E3FD0020FEF7E0FCEA
:102340001B4948600020FEF7DBFC1949886000202B
:10235000FEF7D6FC1649C8600020FEF7D1FC1449F0
:1023600008610020FEF7CCFC11494861002311A24E
:1023700001210846FEF750FA00231A4619460120AB
:10238000FFF704F80A49C868FEF764FD10BD0000B5
:10239000300E0020A1220008F00E0020D1220008FB
:1023A000F00F0020A9220008B0100020ED22000844
:1023B000741100206C69757A68656E00704770470B
:1023C000704770477047704700B585B0012144F2EF
:1023D0000400FFF7D3FB4FF40070ADF81000182095
:1023E0008DF8130003208DF8120004A91648FEF79B
:1023F0009AF84FF48060ADF8100004208DF81300B7
:1024000004A91148FEF78FF84FF4165000900020F1
:10241000ADF80400ADF80600ADF80800ADF80C000A
:102420000C20ADF80A006946084800F04DF801227A
:1024300040F22441054800F021F80121034800F052
:1024400008F805B000BD0000000801400038014058
:10245000704721B1828942F40052828104E082896E
:102460004DF6FF731A40828170471AB1838A0B437D
:10247000838202E0838A8B4383827047F0B50346F0
:10248000002400260025002040F66A17B94200D13A
:1024900000BF1846C1F3421401F01F06012707FAD6
:1024A00006F5012C01D10C3004E0022C01D11030D2
:1024B00000E014301AB107682F43076002E0076894
:1024C000AF430760F0BD00002DE9F04786B0054638
:1024D0000E460024A24600BFA1460027B08900B1E5
:1024E00000BF2F462C8A4CF6FF700440F08804434E
:1024F0002C82AC894EF6F3100440B0883189084331
:10250000718908430443AC81AC8A4FF6FF40044014
:10251000B0890443AC8201A8FFF740FB1F48874203
:1025200002D1DDF810A001E0DDF80CA0A88900F4CC
:10253000004040B10AEBCA0000EB0A1031684900C4
:10254000B0FBF1F807E00AEBCA0000EB0A103168B3
:102550008900B0FBF1F86420B8FBF0F00401200919
:10256000642101FB1089A88900F4004040B13220A9
:1025700000EBC900B0FBF1F000F00700044308E0F5
:10258000322000EB09106421B0FBF1F000F00F00E5
:1025900004432C8106B0BDE8F087000000380140FC
:1025A00008B51C4800780A2190FBF1F201FB1200EB
:1025B0003030C0B28DF8020016480078642190FBDC
:1025C000F1F201FB12000A2190FBF1F03030C0B2B1
:1025D0008DF801000F480078642809DA01230DF115
:1025E00001020D4801780D480078FEF715F910E05A
:1025F00008480078642190FBF1F03030C0B28DF8CB
:10260000000001236A460448017804480078FEF778
:1026100003F908BD520000205100002050000020A6
:1026200000BFFEE708A00C49496808600BA00A49F2
:10263000496848600DA00849496888600FA00649AC
:102640004968C86070470000D4C3B4EFBAA3B2CEE3
:10265000CBCDB9D8B0AE0000A8110020B3A3B3D43D
:10266000BAA3B2CEB1A3BDA1BFB50000BCD2C8CB46
:10267000B7FECEF1C8C8CFDF0000000031323334DE
:10268000353637383900000010B5FDF752FEFEF739
:10269000C7FA0523044A00210448FEF731FCFEF77F
:1026A00009FC002010BD0000700D0020C5220008AC
:1026B00001000000785634120A00100001002000CA
:1026C00040010000000000000000050010001F0095
:1026D00000000000050010000000000000000400E1
:1026E00000000400000004000100040001000100DB
:1026F00001008000010012001000010080000100B4
:10270000010020005000E80301001E01960B0000AC
:1027100001000200010003000100020001000400AA
:102720000100020001000300010002000100050099
:10273000010002000100030001000200010004008A
:102740000100020001000300010002000100060078
:10275000010002000100030001000200010004006A
:102760000100020001000300010002000100050059
:10277000010002000100030001000200010004004A
:102780000100020001000300010002000100070037
:10279000010002000100030001000200010004002A
:1027A0000100020001000300010002000100050019
:1027B000010002000100030001000200010004000A
:1027C00001000200010003000100020001000600F8
:1027D00001000200010003000100020001000400EA
:1027E00001000200010003000100020001000500D9
:1027F00001000200010003000100020001000400CA
:1028000001000200010003000100020001000000BD
:102810003028000800000020540000006C0100086F
:102820008428000854000020C41300008801000818
:102830000000000000000000000000000000000098
:102840000000000000000000000000000000000088
:102850000000000000000000000000000000000078
:102860000000000000000000000000000000000068
:102870000102030401020304060708090204060812
:042880000000000054
:04000005080001CF1F
:00000001FF
